{
  "_format": "hh-sol-artifact-1",
  "contractName": "AsoEbiAution",
  "sourceName": "contracts/AsoEbiAuction.sol",
  "abi": [
    {
      "inputs": [
        {
          "internalType": "address",
          "name": "_escrowAddress",
          "type": "address"
        }
      ],
      "stateMutability": "nonpayable",
      "type": "constructor"
    },
    {
      "inputs": [],
      "name": "AuctionAlreadyEnded",
      "type": "error"
    },
    {
      "inputs": [],
      "name": "AuctionAlreadyListed",
      "type": "error"
    },
    {
      "inputs": [],
      "name": "AuctionAlreadyStart",
      "type": "error"
    },
    {
      "inputs": [],
      "name": "AuctionIsActive",
      "type": "error"
    },
    {
      "inputs": [
        {
          "internalType": "uint256",
          "name": "amount",
          "type": "uint256"
        }
      ],
      "name": "BidRefundFailed",
      "type": "error"
    },
    {
      "inputs": [],
      "name": "CancelAuction_AuctionDoesNotExist",
      "type": "error"
    },
    {
      "inputs": [],
      "name": "CancelAuction_AuctionFinaliZed",
      "type": "error"
    },
    {
      "inputs": [
        {
          "internalType": "address",
          "name": "sender",
          "type": "address"
        }
      ],
      "name": "CancelAuction_InvalidOwner",
      "type": "error"
    },
    {
      "inputs": [],
      "name": "CheckAuction_AuctionAlreadyFinalized",
      "type": "error"
    },
    {
      "inputs": [],
      "name": "CheckAuction_AuctionDoesNotExist",
      "type": "error"
    },
    {
      "inputs": [
        {
          "internalType": "address",
          "name": "sender",
          "type": "address"
        }
      ],
      "name": "CheckAuction_InvalidOwner",
      "type": "error"
    },
    {
      "inputs": [
        {
          "internalType": "uint256",
          "name": "endTiem",
          "type": "uint256"
        }
      ],
      "name": "CreateAuction_InvalidEndTime",
      "type": "error"
    },
    {
      "inputs": [
        {
          "internalType": "address",
          "name": "sender",
          "type": "address"
        }
      ],
      "name": "CreateAuction_InvalidOwner",
      "type": "error"
    },
    {
      "inputs": [],
      "name": "CreateAuction_InvalidSellingPrice",
      "type": "error"
    },
    {
      "inputs": [
        {
          "internalType": "uint256",
          "name": "startTime",
          "type": "uint256"
        }
      ],
      "name": "CreateAuction_InvalidStartTime",
      "type": "error"
    },
    {
      "inputs": [],
      "name": "InvalidBid",
      "type": "error"
    },
    {
      "inputs": [
        {
          "internalType": "uint256",
          "name": "endTiem",
          "type": "uint256"
        }
      ],
      "name": "InvalidEndTImeTime",
      "type": "error"
    },
    {
      "inputs": [
        {
          "internalType": "uint256",
          "name": "startTime",
          "type": "uint256"
        }
      ],
      "name": "InvalidStartTime",
      "type": "error"
    },
    {
      "inputs": [],
      "name": "InvalidWinningBid",
      "type": "error"
    },
    {
      "inputs": [],
      "name": "NoBid",
      "type": "error"
    },
    {
      "inputs": [
        {
          "internalType": "address",
          "name": "owner",
          "type": "address"
        }
      ],
      "name": "OwnableInvalidOwner",
      "type": "error"
    },
    {
      "inputs": [
        {
          "internalType": "address",
          "name": "account",
          "type": "address"
        }
      ],
      "name": "OwnableUnauthorizedAccount",
      "type": "error"
    },
    {
      "inputs": [],
      "name": "PlaceBid_AuctionAlreadyFinalized",
      "type": "error"
    },
    {
      "inputs": [],
      "name": "PlaceBid_DidNotOutBid",
      "type": "error"
    },
    {
      "inputs": [],
      "name": "PlaceBid_InvaildAuction",
      "type": "error"
    },
    {
      "inputs": [],
      "name": "ReentrancyGuardReentrantCall",
      "type": "error"
    },
    {
      "inputs": [],
      "name": "WithDrawBid_InvalidOwner",
      "type": "error"
    },
    {
      "inputs": [],
      "name": "WithDrawBid_TimeLock",
      "type": "error"
    },
    {
      "anonymous": false,
      "inputs": [
        {
          "indexed": true,
          "internalType": "address",
          "name": "nftAddress",
          "type": "address"
        },
        {
          "indexed": true,
          "internalType": "uint256",
          "name": "tokenId",
          "type": "uint256"
        }
      ],
      "name": "AuctionCancelled",
      "type": "event"
    },
    {
      "anonymous": false,
      "inputs": [
        {
          "indexed": true,
          "internalType": "address",
          "name": "nftAddress",
          "type": "address"
        },
        {
          "indexed": true,
          "internalType": "uint256",
          "name": "tokenId",
          "type": "uint256"
        },
        {
          "indexed": false,
          "internalType": "enum AsoEbiAution.AuctionType",
          "name": "auctionTye",
          "type": "uint8"
        }
      ],
      "name": "AuctionCreated",
      "type": "event"
    },
    {
      "anonymous": false,
      "inputs": [
        {
          "indexed": false,
          "internalType": "address",
          "name": "oldOwner",
          "type": "address"
        },
        {
          "indexed": true,
          "internalType": "address",
          "name": "nftAddress",
          "type": "address"
        },
        {
          "indexed": true,
          "internalType": "uint256",
          "name": "tokenId",
          "type": "uint256"
        },
        {
          "indexed": true,
          "internalType": "address",
          "name": "winner",
          "type": "address"
        },
        {
          "indexed": false,
          "internalType": "uint256",
          "name": "winningBid",
          "type": "uint256"
        }
      ],
      "name": "AuctionFinalized",
      "type": "event"
    },
    {
      "anonymous": false,
      "inputs": [
        {
          "indexed": true,
          "internalType": "address",
          "name": "nftAddress",
          "type": "address"
        },
        {
          "indexed": true,
          "internalType": "uint256",
          "name": "tokenId",
          "type": "uint256"
        },
        {
          "indexed": true,
          "internalType": "address",
          "name": "bidder",
          "type": "address"
        },
        {
          "indexed": false,
          "internalType": "uint256",
          "name": "bid",
          "type": "uint256"
        }
      ],
      "name": "BidPlaced",
      "type": "event"
    },
    {
      "anonymous": false,
      "inputs": [
        {
          "indexed": true,
          "internalType": "address",
          "name": "nftAddress",
          "type": "address"
        },
        {
          "indexed": true,
          "internalType": "uint256",
          "name": "tokenId",
          "type": "uint256"
        },
        {
          "indexed": true,
          "internalType": "address",
          "name": "bidder",
          "type": "address"
        },
        {
          "indexed": false,
          "internalType": "uint256",
          "name": "bid",
          "type": "uint256"
        }
      ],
      "name": "BidRefunded",
      "type": "event"
    },
    {
      "anonymous": false,
      "inputs": [
        {
          "indexed": true,
          "internalType": "address",
          "name": "nftAddress",
          "type": "address"
        },
        {
          "indexed": true,
          "internalType": "uint256",
          "name": "tokenId",
          "type": "uint256"
        },
        {
          "indexed": true,
          "internalType": "address",
          "name": "bidder",
          "type": "address"
        },
        {
          "indexed": false,
          "internalType": "uint256",
          "name": "bid",
          "type": "uint256"
        }
      ],
      "name": "BidWithdrawn",
      "type": "event"
    },
    {
      "anonymous": false,
      "inputs": [
        {
          "indexed": false,
          "internalType": "address",
          "name": "operator",
          "type": "address"
        },
        {
          "indexed": false,
          "internalType": "address",
          "name": "from",
          "type": "address"
        },
        {
          "indexed": false,
          "internalType": "uint256",
          "name": "tokenId",
          "type": "uint256"
        },
        {
          "indexed": false,
          "internalType": "bytes",
          "name": "data",
          "type": "bytes"
        }
      ],
      "name": "NFTReceived",
      "type": "event"
    },
    {
      "anonymous": false,
      "inputs": [
        {
          "indexed": true,
          "internalType": "address",
          "name": "previousOwner",
          "type": "address"
        },
        {
          "indexed": true,
          "internalType": "address",
          "name": "newOwner",
          "type": "address"
        }
      ],
      "name": "OwnershipTransferred",
      "type": "event"
    },
    {
      "anonymous": false,
      "inputs": [
        {
          "indexed": true,
          "internalType": "address",
          "name": "nftAddress",
          "type": "address"
        },
        {
          "indexed": true,
          "internalType": "uint256",
          "name": "tokenId",
          "type": "uint256"
        },
        {
          "indexed": false,
          "internalType": "uint256",
          "name": "endTime",
          "type": "uint256"
        }
      ],
      "name": "UpdatedAuctionEndTime",
      "type": "event"
    },
    {
      "anonymous": false,
      "inputs": [
        {
          "indexed": true,
          "internalType": "address",
          "name": "nftAddress",
          "type": "address"
        },
        {
          "indexed": true,
          "internalType": "uint256",
          "name": "tokenId",
          "type": "uint256"
        },
        {
          "indexed": false,
          "internalType": "uint256",
          "name": "minimumSellingPrice",
          "type": "uint256"
        }
      ],
      "name": "UpdatedAuctionMinimumSellingPrice",
      "type": "event"
    },
    {
      "anonymous": false,
      "inputs": [
        {
          "indexed": true,
          "internalType": "address",
          "name": "nftAddress",
          "type": "address"
        },
        {
          "indexed": true,
          "internalType": "uint256",
          "name": "tokenId",
          "type": "uint256"
        },
        {
          "indexed": false,
          "internalType": "uint256",
          "name": "startTime",
          "type": "uint256"
        }
      ],
      "name": "UpdatedAuctionStartTime",
      "type": "event"
    },
    {
      "inputs": [
        {
          "internalType": "address",
          "name": "",
          "type": "address"
        },
        {
          "internalType": "uint256",
          "name": "",
          "type": "uint256"
        }
      ],
      "name": "auctions",
      "outputs": [
        {
          "internalType": "address",
          "name": "owner",
          "type": "address"
        },
        {
          "internalType": "uint256",
          "name": "minimumBid",
          "type": "uint256"
        },
        {
          "internalType": "uint256",
          "name": "minimumSellingPrice",
          "type": "uint256"
        },
        {
          "internalType": "uint256",
          "name": "startTime",
          "type": "uint256"
        },
        {
          "internalType": "uint256",
          "name": "endTime",
          "type": "uint256"
        },
        {
          "internalType": "enum AsoEbiAution.AuctionType",
          "name": "auctionType",
          "type": "uint8"
        },
        {
          "internalType": "bool",
          "name": "finalized",
          "type": "bool"
        },
        {
          "internalType": "bool",
          "name": "minimumbidIsMinSellingPrice",
          "type": "bool"
        }
      ],
      "stateMutability": "view",
      "type": "function"
    },
    {
      "inputs": [
        {
          "internalType": "address",
          "name": "_nftAddress",
          "type": "address"
        },
        {
          "internalType": "uint256",
          "name": "_tokenId",
          "type": "uint256"
        }
      ],
      "name": "cancelAuction",
      "outputs": [],
      "stateMutability": "nonpayable",
      "type": "function"
    },
    {
      "inputs": [
        {
          "internalType": "address",
          "name": "_nftAddress",
          "type": "address"
        },
        {
          "internalType": "uint256",
          "name": "_tokenId",
          "type": "uint256"
        },
        {
          "internalType": "uint256",
          "name": "_minimumSellingPrice",
          "type": "uint256"
        },
        {
          "internalType": "uint256",
          "name": "_startTime",
          "type": "uint256"
        },
        {
          "internalType": "uint256",
          "name": "_endTime",
          "type": "uint256"
        },
        {
          "internalType": "enum AsoEbiAution.AuctionType",
          "name": "_auctionType",
          "type": "uint8"
        },
        {
          "internalType": "bool",
          "name": "_minimumbidIsMinSellingPrice",
          "type": "bool"
        }
      ],
      "name": "createAuction",
      "outputs": [],
      "stateMutability": "payable",
      "type": "function"
    },
    {
      "inputs": [],
      "name": "escrowAddress",
      "outputs": [
        {
          "internalType": "address",
          "name": "",
          "type": "address"
        }
      ],
      "stateMutability": "view",
      "type": "function"
    },
    {
      "inputs": [
        {
          "internalType": "address",
          "name": "_nftAddress",
          "type": "address"
        },
        {
          "internalType": "uint256",
          "name": "_tokenId",
          "type": "uint256"
        }
      ],
      "name": "finalizeAuction",
      "outputs": [],
      "stateMutability": "nonpayable",
      "type": "function"
    },
    {
      "inputs": [
        {
          "internalType": "address",
          "name": "_nftAddress",
          "type": "address"
        },
        {
          "internalType": "uint256",
          "name": "_tokenId",
          "type": "uint256"
        }
      ],
      "name": "getAuction",
      "outputs": [
        {
          "internalType": "address",
          "name": "_owner",
          "type": "address"
        },
        {
          "internalType": "uint256",
          "name": "minBid",
          "type": "uint256"
        },
        {
          "internalType": "uint256",
          "name": "minimumSellingPrice",
          "type": "uint256"
        },
        {
          "internalType": "uint256",
          "name": "_startTime",
          "type": "uint256"
        },
        {
          "internalType": "uint256",
          "name": "_endTime",
          "type": "uint256"
        },
        {
          "internalType": "enum AsoEbiAution.AuctionType",
          "name": "_auctionType",
          "type": "uint8"
        },
        {
          "internalType": "bool",
          "name": "_finalized",
          "type": "bool"
        },
        {
          "internalType": "bool",
          "name": "_minimumbidIsMinSellingPrice",
          "type": "bool"
        }
      ],
      "stateMutability": "view",
      "type": "function"
    },
    {
      "inputs": [
        {
          "internalType": "address",
          "name": "_nftAddress",
          "type": "address"
        },
        {
          "internalType": "uint256",
          "name": "_tokenId",
          "type": "uint256"
        }
      ],
      "name": "getHighestBidder",
      "outputs": [
        {
          "internalType": "address payable",
          "name": "_bidder",
          "type": "address"
        },
        {
          "internalType": "uint256",
          "name": "_bid",
          "type": "uint256"
        },
        {
          "internalType": "uint256",
          "name": "_lastBidTime",
          "type": "uint256"
        }
      ],
      "stateMutability": "view",
      "type": "function"
    },
    {
      "inputs": [
        {
          "internalType": "address",
          "name": "",
          "type": "address"
        },
        {
          "internalType": "uint256",
          "name": "",
          "type": "uint256"
        }
      ],
      "name": "highestBids",
      "outputs": [
        {
          "internalType": "address payable",
          "name": "bidder",
          "type": "address"
        },
        {
          "internalType": "uint256",
          "name": "bid",
          "type": "uint256"
        },
        {
          "internalType": "uint256",
          "name": "lastBidTime",
          "type": "uint256"
        }
      ],
      "stateMutability": "view",
      "type": "function"
    },
    {
      "inputs": [
        {
          "internalType": "address",
          "name": "operator",
          "type": "address"
        },
        {
          "internalType": "address",
          "name": "from",
          "type": "address"
        },
        {
          "internalType": "uint256",
          "name": "tokenId",
          "type": "uint256"
        },
        {
          "internalType": "bytes",
          "name": "data",
          "type": "bytes"
        }
      ],
      "name": "onERC721Received",
      "outputs": [
        {
          "internalType": "bytes4",
          "name": "",
          "type": "bytes4"
        }
      ],
      "stateMutability": "nonpayable",
      "type": "function"
    },
    {
      "inputs": [],
      "name": "owner",
      "outputs": [
        {
          "internalType": "address",
          "name": "",
          "type": "address"
        }
      ],
      "stateMutability": "view",
      "type": "function"
    },
    {
      "inputs": [
        {
          "internalType": "address",
          "name": "_nftAddress",
          "type": "address"
        },
        {
          "internalType": "uint256",
          "name": "_tokenId",
          "type": "uint256"
        }
      ],
      "name": "placeBid",
      "outputs": [],
      "stateMutability": "payable",
      "type": "function"
    },
    {
      "inputs": [],
      "name": "renounceOwnership",
      "outputs": [],
      "stateMutability": "nonpayable",
      "type": "function"
    },
    {
      "inputs": [
        {
          "internalType": "address",
          "name": "newOwner",
          "type": "address"
        }
      ],
      "name": "transferOwnership",
      "outputs": [],
      "stateMutability": "nonpayable",
      "type": "function"
    },
    {
      "inputs": [
        {
          "internalType": "address",
          "name": "_nftAddress",
          "type": "address"
        },
        {
          "internalType": "uint256",
          "name": "_tokenId",
          "type": "uint256"
        },
        {
          "internalType": "uint256",
          "name": "_endTimestamp",
          "type": "uint256"
        }
      ],
      "name": "updateAuctionEndTime",
      "outputs": [],
      "stateMutability": "nonpayable",
      "type": "function"
    },
    {
      "inputs": [
        {
          "internalType": "address",
          "name": "_nftAddress",
          "type": "address"
        },
        {
          "internalType": "uint256",
          "name": "_tokenId",
          "type": "uint256"
        },
        {
          "internalType": "uint256",
          "name": "_minimumSellingPrice",
          "type": "uint256"
        }
      ],
      "name": "updateAuctionMinimumSellingPrice",
      "outputs": [],
      "stateMutability": "nonpayable",
      "type": "function"
    },
    {
      "inputs": [
        {
          "internalType": "address",
          "name": "_nftAddress",
          "type": "address"
        },
        {
          "internalType": "uint256",
          "name": "_tokenId",
          "type": "uint256"
        },
        {
          "internalType": "uint256",
          "name": "_startTime",
          "type": "uint256"
        }
      ],
      "name": "updateAuctionStartTime",
      "outputs": [],
      "stateMutability": "nonpayable",
      "type": "function"
    },
    {
      "inputs": [
        {
          "internalType": "address",
          "name": "_escrowAddress",
          "type": "address"
        }
      ],
      "name": "updateEscrowAddress",
      "outputs": [],
      "stateMutability": "nonpayable",
      "type": "function"
    },
    {
      "inputs": [
        {
          "internalType": "address",
          "name": "_nftAddress",
          "type": "address"
        },
        {
          "internalType": "uint256",
          "name": "_tokenId",
          "type": "uint256"
        }
      ],
      "name": "withdrawBid",
      "outputs": [],
      "stateMutability": "nonpayable",
      "type": "function"
    }
  ],
  "bytecode": "0x608060405234801561001057600080fd5b506040516131d23803806131d28339818101604052810190610032919061022a565b33600073ffffffffffffffffffffffffffffffffffffffff168173ffffffffffffffffffffffffffffffffffffffff16036100a55760006040517f1e4fbdf700000000000000000000000000000000000000000000000000000000815260040161009c9190610266565b60405180910390fd5b6100b48161010360201b60201c565b506001808190555080600460006101000a81548173ffffffffffffffffffffffffffffffffffffffff021916908373ffffffffffffffffffffffffffffffffffffffff16021790555050610281565b60008060009054906101000a900473ffffffffffffffffffffffffffffffffffffffff169050816000806101000a81548173ffffffffffffffffffffffffffffffffffffffff021916908373ffffffffffffffffffffffffffffffffffffffff1602179055508173ffffffffffffffffffffffffffffffffffffffff168173ffffffffffffffffffffffffffffffffffffffff167f8be0079c531659141344cd1fd0a4f28419497f9722a3daafe3b4186f6b6457e060405160405180910390a35050565b600080fd5b600073ffffffffffffffffffffffffffffffffffffffff82169050919050565b60006101f7826101cc565b9050919050565b610207816101ec565b811461021257600080fd5b50565b600081519050610224816101fe565b92915050565b6000602082840312156102405761023f6101c7565b5b600061024e84828501610215565b91505092915050565b610260816101ec565b82525050565b600060208201905061027b6000830184610257565b92915050565b612f42806102906000396000f3fe6080604052600436106101095760003560e01c8063715018a6116100955780639ad2d9ec116100645780639ad2d9ec14610368578063a670a9b414610391578063d47e1613146103d0578063d98b9bb5146103f9578063f2fde38b1461041557610109565b8063715018a6146102b9578063762a66a2146102d0578063859b97fe146103145780638da5cb5b1461033d57610109565b806344f91c1e116100dc57806344f91c1e146101bb5780634cb8ef5b146101ff57806368905116146102285780636b753f36146102515780636c58a5a41461029057610109565b80630d5defa41461010e578063150b7a02146101395780632b8daa751461017657806341e59c2814610192575b600080fd5b34801561011a57600080fd5b5061012361043e565b604051610130919061271b565b60405180910390f35b34801561014557600080fd5b50610160600480360381019061015b9190612807565b610464565b60405161016d91906128ca565b60405180910390f35b610190600480360381019061018b9190612942565b6104b8565b005b34801561019e57600080fd5b506101b960048036038101906101b491906129e4565b610979565b005b3480156101c757600080fd5b506101e260048036038101906101dd9190612a11565b6109c5565b6040516101f6989796959493929190612ae6565b60405180910390f35b34801561020b57600080fd5b5061022660048036038101906102219190612a11565b610a61565b005b34801561023457600080fd5b5061024f600480360381019061024a9190612a11565b610d05565b005b34801561025d57600080fd5b5061027860048036038101906102739190612a11565b61116d565b60405161028793929190612b85565b60405180910390f35b34801561029c57600080fd5b506102b760048036038101906102b29190612bbc565b6111c4565b005b3480156102c557600080fd5b506102ce61131b565b005b3480156102dc57600080fd5b506102f760048036038101906102f29190612a11565b61132f565b60405161030b989796959493929190612ae6565b60405180910390f35b34801561032057600080fd5b5061033b60048036038101906103369190612a11565b6114d0565b005b34801561034957600080fd5b50610352611a31565b60405161035f919061271b565b60405180910390f35b34801561037457600080fd5b5061038f600480360381019061038a9190612bbc565b611a5a565b005b34801561039d57600080fd5b506103b860048036038101906103b39190612a11565b611c00565b6040516103c793929190612b85565b60405180910390f35b3480156103dc57600080fd5b506103f760048036038101906103f29190612bbc565b611cea565b005b610413600480360381019061040e9190612a11565b611dec565b005b34801561042157600080fd5b5061043c600480360381019061043791906129e4565b612149565b005b600460009054906101000a900473ffffffffffffffffffffffffffffffffffffffff1681565b60007f1d823cdc8f0514a95b53538df2d2f3deaf98d1c534c6e750daa593173c27f8f0868686868660405161049d959493929190612c6d565b60405180910390a163150b7a0260e01b905095945050505050565b6000600260008973ffffffffffffffffffffffffffffffffffffffff1673ffffffffffffffffffffffffffffffffffffffff16815260200190815260200160002060008881526020019081526020016000206003015414610545576040517f432b7fe500000000000000000000000000000000000000000000000000000000815260040160405180910390fd5b8673ffffffffffffffffffffffffffffffffffffffff16636352211e876040518263ffffffff1660e01b815260040161057e9190612cbb565b602060405180830381865afa15801561059b573d6000803e3d6000fd5b505050506040513d601f19601f820116820180604052508101906105bf9190612ceb565b73ffffffffffffffffffffffffffffffffffffffff163373ffffffffffffffffffffffffffffffffffffffff1614339061062f576040517f8af21fdd000000000000000000000000000000000000000000000000000000008152600401610626919061271b565b60405180910390fd5b506000851161066a576040517f8e4ca02700000000000000000000000000000000000000000000000000000000815260040160405180910390fd5b6106726121cf565b84101584906106b7576040517ff8cad8170000000000000000000000000000000000000000000000000000000081526004016106ae9190612cbb565b60405180910390fd5b50610258846106c69190612d47565b831015839061070b576040517fa52b8c610000000000000000000000000000000000000000000000000000000081526004016107029190612cbb565b60405180910390fd5b5060008115610718578590505b8773ffffffffffffffffffffffffffffffffffffffff166342842e0e33308a6040518463ffffffff1660e01b815260040161075593929190612d7b565b600060405180830381600087803b15801561076f57600080fd5b505af1158015610783573d6000803e3d6000fd5b505050506040518061010001604052803373ffffffffffffffffffffffffffffffffffffffff1681526020018281526020018781526020018681526020018581526020018460018111156107da576107d9612a60565b5b8152602001600015158152602001831515815250600260008a73ffffffffffffffffffffffffffffffffffffffff1673ffffffffffffffffffffffffffffffffffffffff168152602001908152602001600020600089815260200190815260200160002060008201518160000160006101000a81548173ffffffffffffffffffffffffffffffffffffffff021916908373ffffffffffffffffffffffffffffffffffffffff1602179055506020820151816001015560408201518160020155606082015181600301556080820151816004015560a08201518160050160006101000a81548160ff021916908360018111156108d8576108d7612a60565b5b021790555060c08201518160050160016101000a81548160ff02191690831515021790555060e08201518160050160026101000a81548160ff021916908315150217905550905050868873ffffffffffffffffffffffffffffffffffffffff167fd02b865a2c006b507c68e99239d2fa58d16b41293d8a8409910d9b36c0c0839c856040516109679190612db2565b60405180910390a35050505050505050565b6109816121d7565b80600460006101000a81548173ffffffffffffffffffffffffffffffffffffffff021916908373ffffffffffffffffffffffffffffffffffffffff16021790555050565b6002602052816000526040600020602052806000526040600020600091509150508060000160009054906101000a900473ffffffffffffffffffffffffffffffffffffffff16908060010154908060020154908060030154908060040154908060050160009054906101000a900460ff16908060050160019054906101000a900460ff16908060050160029054906101000a900460ff16905088565b610a6961225e565b6000600360008473ffffffffffffffffffffffffffffffffffffffff1673ffffffffffffffffffffffffffffffffffffffff1681526020019081526020016000206000838152602001908152602001600020905060008160000160009054906101000a900473ffffffffffffffffffffffffffffffffffffffff1690503373ffffffffffffffffffffffffffffffffffffffff168173ffffffffffffffffffffffffffffffffffffffff1614610b4b576040517f7dd28f3e00000000000000000000000000000000000000000000000000000000815260040160405180910390fd5b6000600260008673ffffffffffffffffffffffffffffffffffffffff1673ffffffffffffffffffffffffffffffffffffffff168152602001908152602001600020600085815260200190815260200160002060040154905061546081610bb19190612d47565b610bb96121cf565b11610bf0576040517f2e1b052c00000000000000000000000000000000000000000000000000000000815260040160405180910390fd5b600083600101549050600360008773ffffffffffffffffffffffffffffffffffffffff1673ffffffffffffffffffffffffffffffffffffffff1681526020019081526020016000206000868152602001908152602001600020600080820160006101000a81549073ffffffffffffffffffffffffffffffffffffffff0219169055600182016000905560028201600090555050610c8f868685846122a4565b8273ffffffffffffffffffffffffffffffffffffffff16858773ffffffffffffffffffffffffffffffffffffffff167f867b8ea96dd803063f905a19f8117cbb1866ec7a594dfede75ab4a5235f61d7c84604051610ced9190612cbb565b60405180910390a450505050610d016123c1565b5050565b610d0d61225e565b6000600260008473ffffffffffffffffffffffffffffffffffffffff1673ffffffffffffffffffffffffffffffffffffffff168152602001908152602001600020600083815260200190815260200160002090506000600360008573ffffffffffffffffffffffffffffffffffffffff1673ffffffffffffffffffffffffffffffffffffffff1681526020019081526020016000206000848152602001908152602001600020905060008160010154905060008260000160009054906101000a900473ffffffffffffffffffffffffffffffffffffffff169050610df186866123ca565b610df96121cf565b846004015410610e35576040517f5bd3f04f00000000000000000000000000000000000000000000000000000000815260040160405180910390fd5b600073ffffffffffffffffffffffffffffffffffffffff168173ffffffffffffffffffffffffffffffffffffffff1603610e9b576040517f26ca1de200000000000000000000000000000000000000000000000000000000815260040160405180910390fd5b8360020154821015610ed9576040517f60e9d82000000000000000000000000000000000000000000000000000000000815260040160405180910390fd5b60018460050160016101000a81548160ff021916908315150217905550600360008773ffffffffffffffffffffffffffffffffffffffff1673ffffffffffffffffffffffffffffffffffffffff1681526020019081526020016000206000868152602001908152602001600020600080820160006101000a81549073ffffffffffffffffffffffffffffffffffffffff02191690556001820160009055600282016000905550508573ffffffffffffffffffffffffffffffffffffffff166342842e0e30600460009054906101000a900473ffffffffffffffffffffffffffffffffffffffff16886040518463ffffffff1660e01b8152600401610fdf93929190612d7b565b600060405180830381600087803b158015610ff957600080fd5b505af115801561100d573d6000803e3d6000fd5b505050506000600460009054906101000a900473ffffffffffffffffffffffffffffffffffffffff1690508073ffffffffffffffffffffffffffffffffffffffff166331810b8d8489898960000160009054906101000a900473ffffffffffffffffffffffffffffffffffffffff1687896040518763ffffffff1660e01b815260040161109e959493929190612dcd565b6000604051808303818588803b1580156110b757600080fd5b505af11580156110cb573d6000803e3d6000fd5b50505050508173ffffffffffffffffffffffffffffffffffffffff16868873ffffffffffffffffffffffffffffffffffffffff167f29eb6659e9834756c753c14acca4cfc7add2a9a3b78731b38d0ff892178d43e88860000160009054906101000a900473ffffffffffffffffffffffffffffffffffffffff1687604051611154929190612e20565b60405180910390a450505050506111696123c1565b5050565b6003602052816000526040600020602052806000526040600020600091509150508060000160009054906101000a900473ffffffffffffffffffffffffffffffffffffffff16908060010154908060020154905083565b6000600260008573ffffffffffffffffffffffffffffffffffffffff1673ffffffffffffffffffffffffffffffffffffffff1681526020019081526020016000206000848152602001908152602001600020905061122284846123ca565b61122a6121cf565b816003015411611266576040517fe4cbaadb00000000000000000000000000000000000000000000000000000000815260040160405180910390fd5b8060040154610258836112799190612d47565b1082906112bc576040517f76429b570000000000000000000000000000000000000000000000000000000081526004016112b39190612cbb565b60405180910390fd5b50818160030181905550828473ffffffffffffffffffffffffffffffffffffffff167f262cabea1903b5947af705d6b62a96e668626538b4f4e80b9cd2a3119616cc948460405161130d9190612cbb565b60405180910390a350505050565b6113236121d7565b61132d600061260e565b565b6000806000806000806000806000600260008c73ffffffffffffffffffffffffffffffffffffffff1673ffffffffffffffffffffffffffffffffffffffff16815260200190815260200160002060008b8152602001908152602001600020604051806101000160405290816000820160009054906101000a900473ffffffffffffffffffffffffffffffffffffffff1673ffffffffffffffffffffffffffffffffffffffff1673ffffffffffffffffffffffffffffffffffffffff168152602001600182015481526020016002820154815260200160038201548152602001600482015481526020016005820160009054906101000a900460ff16600181111561143c5761143b612a60565b5b600181111561144e5761144d612a60565b5b81526020016005820160019054906101000a900460ff161515151581526020016005820160029054906101000a900460ff1615151515815250509050806000015181602001518260400151836060015184608001518560a001518660c001518760e0015198509850985098509850985098509850509295985092959890939650565b6114d861225e565b6000600260008473ffffffffffffffffffffffffffffffffffffffff1673ffffffffffffffffffffffffffffffffffffffff1681526020019081526020016000206000838152602001908152602001600020604051806101000160405290816000820160009054906101000a900473ffffffffffffffffffffffffffffffffffffffff1673ffffffffffffffffffffffffffffffffffffffff1673ffffffffffffffffffffffffffffffffffffffff168152602001600182015481526020016002820154815260200160038201548152602001600482015481526020016005820160009054906101000a900460ff1660018111156115d9576115d8612a60565b5b60018111156115eb576115ea612a60565b5b81526020016005820160019054906101000a900460ff161515151581526020016005820160029054906101000a900460ff16151515158152505090506000816000015190503373ffffffffffffffffffffffffffffffffffffffff168173ffffffffffffffffffffffffffffffffffffffff161433906116a1576040517fe23a42b1000000000000000000000000000000000000000000000000000000008152600401611698919061271b565b60405180910390fd5b50600015158260c001511515146116e4576040517fce7acca400000000000000000000000000000000000000000000000000000000815260040160405180910390fd5b6000826060015111611722576040517fc10d7c0d00000000000000000000000000000000000000000000000000000000815260040160405180910390fd5b6000600360008673ffffffffffffffffffffffffffffffffffffffff1673ffffffffffffffffffffffffffffffffffffffff1681526020019081526020016000206000858152602001908152602001600020905060008160010154905060008260000160009054906101000a900473ffffffffffffffffffffffffffffffffffffffff169050600073ffffffffffffffffffffffffffffffffffffffff168360000160009054906101000a900473ffffffffffffffffffffffffffffffffffffffff1673ffffffffffffffffffffffffffffffffffffffff161461189757600360008873ffffffffffffffffffffffffffffffffffffffff1673ffffffffffffffffffffffffffffffffffffffff1681526020019081526020016000206000878152602001908152602001600020600080820160006101000a81549073ffffffffffffffffffffffffffffffffffffffff0219169055600182016000905560028201600090555050611896878783856122a4565b5b600260008873ffffffffffffffffffffffffffffffffffffffff1673ffffffffffffffffffffffffffffffffffffffff1681526020019081526020016000206000878152602001908152602001600020600080820160006101000a81549073ffffffffffffffffffffffffffffffffffffffff021916905560018201600090556002820160009055600382016000905560048201600090556005820160006101000a81549060ff02191690556005820160016101000a81549060ff02191690556005820160026101000a81549060ff021916905550508673ffffffffffffffffffffffffffffffffffffffff166342842e0e3086896040518463ffffffff1660e01b81526004016119aa93929190612d7b565b600060405180830381600087803b1580156119c457600080fd5b505af11580156119d8573d6000803e3d6000fd5b50505050858773ffffffffffffffffffffffffffffffffffffffff167f018b64b6242d32aa550e95d78985b938d71af5b3f10827b0683f55da1639304860405160405180910390a35050505050611a2d6123c1565b5050565b60008060009054906101000a900473ffffffffffffffffffffffffffffffffffffffff16905090565b6000600260008573ffffffffffffffffffffffffffffffffffffffff1673ffffffffffffffffffffffffffffffffffffffff16815260200190815260200160002060008481526020019081526020016000209050611ab884846123ca565b80600401544210611afe576040517f08c379a0000000000000000000000000000000000000000000000000000000008152600401611af590612ea6565b60405180910390fd5b818160030154108290611b47576040517f87e4e6ff000000000000000000000000000000000000000000000000000000008152600401611b3e9190612cbb565b60405180910390fd5b50610258611b536121cf565b611b5d9190612d47565b82118290611ba1576040517f87e4e6ff000000000000000000000000000000000000000000000000000000008152600401611b989190612cbb565b60405180910390fd5b50818160040181905550828473ffffffffffffffffffffffffffffffffffffffff167fb4750ae7eaf28b20eb12058f20a4c75234589ef33b5de649b9af70b09c80a67584604051611bf29190612cbb565b60405180910390a350505050565b600080600080600360008773ffffffffffffffffffffffffffffffffffffffff1673ffffffffffffffffffffffffffffffffffffffff16815260200190815260200160002060008681526020019081526020016000206040518060600160405290816000820160009054906101000a900473ffffffffffffffffffffffffffffffffffffffff1673ffffffffffffffffffffffffffffffffffffffff1673ffffffffffffffffffffffffffffffffffffffff168152602001600182015481526020016002820154815250509050806000015181602001518260400151935093509350509250925092565b6000600260008573ffffffffffffffffffffffffffffffffffffffff1673ffffffffffffffffffffffffffffffffffffffff1681526020019081526020016000206000848152602001908152602001600020905080600401544210611d84576040517f08c379a0000000000000000000000000000000000000000000000000000000008152600401611d7b90612ea6565b60405180910390fd5b611d8e84846123ca565b818160020181905550828473ffffffffffffffffffffffffffffffffffffffff167f78010836070fcdc84ae38593e545d956ffa13d6d0d5afd61ee9997cd432cc7ef84604051611dde9190612cbb565b60405180910390a350505050565b611df461225e565b60003411611e2e576040517fc6388ef700000000000000000000000000000000000000000000000000000000815260040160405180910390fd5b6000600260008473ffffffffffffffffffffffffffffffffffffffff1673ffffffffffffffffffffffffffffffffffffffff168152602001908152602001600020600083815260200190815260200160002090506000600360008573ffffffffffffffffffffffffffffffffffffffff1673ffffffffffffffffffffffffffffffffffffffff16815260200190815260200160002060008481526020019081526020016000209050600015158260050160019054906101000a900460ff16151514611f25576040517f014d756400000000000000000000000000000000000000000000000000000000815260040160405180910390fd5b8160040154611f326121cf565b11158015611f4b57508160030154611f486121cf565b10155b611f81576040517f2edaa62400000000000000000000000000000000000000000000000000000000815260040160405180910390fd5b8160050160029054906101000a900460ff1615611fd7578160010154341015611fd6576040517fc6388ef700000000000000000000000000000000000000000000000000000000815260040160405180910390fd5b5b80600101543411612014576040517ff057c89b00000000000000000000000000000000000000000000000000000000815260040160405180910390fd5b60008160000160009054906101000a900473ffffffffffffffffffffffffffffffffffffffff169050600082600101549050338360000160006101000a81548173ffffffffffffffffffffffffffffffffffffffff021916908373ffffffffffffffffffffffffffffffffffffffff160217905550348360010181905550600073ffffffffffffffffffffffffffffffffffffffff168273ffffffffffffffffffffffffffffffffffffffff16146120d3576120d2868684846122a4565b5b3373ffffffffffffffffffffffffffffffffffffffff16858773ffffffffffffffffffffffffffffffffffffffff167f0158f5674dc243762459b88cfc91b10d2d1ef9d40821cca978c2b680aa444682346040516121319190612cbb565b60405180910390a4505050506121456123c1565b5050565b6121516121d7565b600073ffffffffffffffffffffffffffffffffffffffff168173ffffffffffffffffffffffffffffffffffffffff16036121c35760006040517f1e4fbdf70000000000000000000000000000000000000000000000000000000081526004016121ba919061271b565b60405180910390fd5b6121cc8161260e565b50565b600042905090565b6121df6126d2565b73ffffffffffffffffffffffffffffffffffffffff166121fd611a31565b73ffffffffffffffffffffffffffffffffffffffff161461225c576122206126d2565b6040517f118cdaa7000000000000000000000000000000000000000000000000000000008152600401612253919061271b565b60405180910390fd5b565b60026001540361229a576040517f3ee5aeb500000000000000000000000000000000000000000000000000000000815260040160405180910390fd5b6002600181905550565b60008273ffffffffffffffffffffffffffffffffffffffff16826040516122ca90612ef7565b60006040518083038185875af1925050503d8060008114612307576040519150601f19603f3d011682016040523d82523d6000602084013e61230c565b606091505b50509050808290612353576040517f9a794d9c00000000000000000000000000000000000000000000000000000000815260040161234a9190612cbb565b60405180910390fd5b508273ffffffffffffffffffffffffffffffffffffffff16848673ffffffffffffffffffffffffffffffffffffffff167f90e20d1ba82eaa07a212267355536f76bc83bf91c81fd41b74283c4082e76952856040516123b29190612cbb565b60405180910390a45050505050565b60018081905550565b6000600260008473ffffffffffffffffffffffffffffffffffffffff1673ffffffffffffffffffffffffffffffffffffffff1681526020019081526020016000206000838152602001908152602001600020604051806101000160405290816000820160009054906101000a900473ffffffffffffffffffffffffffffffffffffffff1673ffffffffffffffffffffffffffffffffffffffff1673ffffffffffffffffffffffffffffffffffffffff168152602001600182015481526020016002820154815260200160038201548152602001600482015481526020016005820160009054906101000a900460ff1660018111156124cb576124ca612a60565b5b60018111156124dd576124dc612a60565b5b81526020016005820160019054906101000a900460ff161515151581526020016005820160029054906101000a900460ff1615151515815250509050806000015173ffffffffffffffffffffffffffffffffffffffff163373ffffffffffffffffffffffffffffffffffffffff1614339061258e576040517f9620eea3000000000000000000000000000000000000000000000000000000008152600401612585919061271b565b60405180910390fd5b508060c00151156125cb576040517f8d079aa700000000000000000000000000000000000000000000000000000000815260040160405180910390fd5b6000816080015111612609576040517f0169bc8f00000000000000000000000000000000000000000000000000000000815260040160405180910390fd5b505050565b60008060009054906101000a900473ffffffffffffffffffffffffffffffffffffffff169050816000806101000a81548173ffffffffffffffffffffffffffffffffffffffff021916908373ffffffffffffffffffffffffffffffffffffffff1602179055508173ffffffffffffffffffffffffffffffffffffffff168173ffffffffffffffffffffffffffffffffffffffff167f8be0079c531659141344cd1fd0a4f28419497f9722a3daafe3b4186f6b6457e060405160405180910390a35050565b600033905090565b600073ffffffffffffffffffffffffffffffffffffffff82169050919050565b6000612705826126da565b9050919050565b612715816126fa565b82525050565b6000602082019050612730600083018461270c565b92915050565b600080fd5b600080fd5b612749816126fa565b811461275457600080fd5b50565b60008135905061276681612740565b92915050565b6000819050919050565b61277f8161276c565b811461278a57600080fd5b50565b60008135905061279c81612776565b92915050565b600080fd5b600080fd5b600080fd5b60008083601f8401126127c7576127c66127a2565b5b8235905067ffffffffffffffff8111156127e4576127e36127a7565b5b602083019150836001820283011115612800576127ff6127ac565b5b9250929050565b60008060008060006080868803121561282357612822612736565b5b600061283188828901612757565b955050602061284288828901612757565b94505060406128538882890161278d565b935050606086013567ffffffffffffffff8111156128745761287361273b565b5b612880888289016127b1565b92509250509295509295909350565b60007fffffffff0000000000000000000000000000000000000000000000000000000082169050919050565b6128c48161288f565b82525050565b60006020820190506128df60008301846128bb565b92915050565b600281106128f257600080fd5b50565b600081359050612904816128e5565b92915050565b60008115159050919050565b61291f8161290a565b811461292a57600080fd5b50565b60008135905061293c81612916565b92915050565b600080600080600080600060e0888a03121561296157612960612736565b5b600061296f8a828b01612757565b97505060206129808a828b0161278d565b96505060406129918a828b0161278d565b95505060606129a28a828b0161278d565b94505060806129b38a828b0161278d565b93505060a06129c48a828b016128f5565b92505060c06129d58a828b0161292d565b91505092959891949750929550565b6000602082840312156129fa576129f9612736565b5b6000612a0884828501612757565b91505092915050565b60008060408385031215612a2857612a27612736565b5b6000612a3685828601612757565b9250506020612a478582860161278d565b9150509250929050565b612a5a8161276c565b82525050565b7f4e487b7100000000000000000000000000000000000000000000000000000000600052602160045260246000fd5b60028110612aa057612a9f612a60565b5b50565b6000819050612ab182612a8f565b919050565b6000612ac182612aa3565b9050919050565b612ad181612ab6565b82525050565b612ae08161290a565b82525050565b600061010082019050612afc600083018b61270c565b612b09602083018a612a51565b612b166040830189612a51565b612b236060830188612a51565b612b306080830187612a51565b612b3d60a0830186612ac8565b612b4a60c0830185612ad7565b612b5760e0830184612ad7565b9998505050505050505050565b6000612b6f826126da565b9050919050565b612b7f81612b64565b82525050565b6000606082019050612b9a6000830186612b76565b612ba76020830185612a51565b612bb46040830184612a51565b949350505050565b600080600060608486031215612bd557612bd4612736565b5b6000612be386828701612757565b9350506020612bf48682870161278d565b9250506040612c058682870161278d565b9150509250925092565b600082825260208201905092915050565b82818337600083830152505050565b6000601f19601f8301169050919050565b6000612c4c8385612c0f565b9350612c59838584612c20565b612c6283612c2f565b840190509392505050565b6000608082019050612c82600083018861270c565b612c8f602083018761270c565b612c9c6040830186612a51565b8181036060830152612caf818486612c40565b90509695505050505050565b6000602082019050612cd06000830184612a51565b92915050565b600081519050612ce581612740565b92915050565b600060208284031215612d0157612d00612736565b5b6000612d0f84828501612cd6565b91505092915050565b7f4e487b7100000000000000000000000000000000000000000000000000000000600052601160045260246000fd5b6000612d528261276c565b9150612d5d8361276c565b9250828201905080821115612d7557612d74612d18565b5b92915050565b6000606082019050612d90600083018661270c565b612d9d602083018561270c565b612daa6040830184612a51565b949350505050565b6000602082019050612dc76000830184612ac8565b92915050565b600060a082019050612de2600083018861270c565b612def6020830187612a51565b612dfc6040830186612b76565b612e09606083018561270c565b612e166080830184612a51565b9695505050505050565b6000604082019050612e35600083018561270c565b612e426020830184612a51565b9392505050565b600082825260208201905092915050565b7f41756374696f6e416c7265616479456e64656400000000000000000000000000600082015250565b6000612e90601383612e49565b9150612e9b82612e5a565b602082019050919050565b60006020820190508181036000830152612ebf81612e83565b9050919050565b600081905092915050565b50565b6000612ee1600083612ec6565b9150612eec82612ed1565b600082019050919050565b6000612f0282612ed4565b915081905091905056fea264697066735822122044be0d665237604b5d70e0d8a57585143ba39d4ad9d6f6e31ac5ec31c25cc94564736f6c634300081b0033",
  "linkReferences": {},
  "deployedLinkReferences": {}
}