{
  "_format": "hh-sol-artifact-1",
  "contractName": "AsoEbiMarketPlace",
  "sourceName": "contracts/AsoEbiMarketPlace.sol",
  "abi": [
    {
      "inputs": [
        {
          "internalType": "address",
          "name": "_escrowAddress",
          "type": "address"
        }
      ],
      "stateMutability": "nonpayable",
      "type": "constructor"
    },
    {
      "inputs": [],
      "name": "Alreadylisted",
      "type": "error"
    },
    {
      "inputs": [
        {
          "internalType": "address",
          "name": "sender",
          "type": "address"
        },
        {
          "internalType": "uint256",
          "name": "tokenId",
          "type": "uint256"
        },
        {
          "internalType": "address",
          "name": "owner",
          "type": "address"
        }
      ],
      "name": "ERC721IncorrectOwner",
      "type": "error"
    },
    {
      "inputs": [
        {
          "internalType": "address",
          "name": "operator",
          "type": "address"
        },
        {
          "internalType": "uint256",
          "name": "tokenId",
          "type": "uint256"
        }
      ],
      "name": "ERC721InsufficientApproval",
      "type": "error"
    },
    {
      "inputs": [
        {
          "internalType": "address",
          "name": "approver",
          "type": "address"
        }
      ],
      "name": "ERC721InvalidApprover",
      "type": "error"
    },
    {
      "inputs": [
        {
          "internalType": "address",
          "name": "operator",
          "type": "address"
        }
      ],
      "name": "ERC721InvalidOperator",
      "type": "error"
    },
    {
      "inputs": [
        {
          "internalType": "address",
          "name": "owner",
          "type": "address"
        }
      ],
      "name": "ERC721InvalidOwner",
      "type": "error"
    },
    {
      "inputs": [
        {
          "internalType": "address",
          "name": "receiver",
          "type": "address"
        }
      ],
      "name": "ERC721InvalidReceiver",
      "type": "error"
    },
    {
      "inputs": [
        {
          "internalType": "address",
          "name": "sender",
          "type": "address"
        }
      ],
      "name": "ERC721InvalidSender",
      "type": "error"
    },
    {
      "inputs": [
        {
          "internalType": "uint256",
          "name": "tokenId",
          "type": "uint256"
        }
      ],
      "name": "ERC721NonexistentToken",
      "type": "error"
    },
    {
      "inputs": [],
      "name": "InsufficientFunds",
      "type": "error"
    },
    {
      "inputs": [],
      "name": "InvalidPrice",
      "type": "error"
    },
    {
      "inputs": [],
      "name": "InvalidQuantity",
      "type": "error"
    },
    {
      "inputs": [],
      "name": "InvalidValue",
      "type": "error"
    },
    {
      "inputs": [
        {
          "internalType": "address",
          "name": "",
          "type": "address"
        }
      ],
      "name": "NotANewUser",
      "type": "error"
    },
    {
      "inputs": [],
      "name": "NotItemOwner",
      "type": "error"
    },
    {
      "inputs": [],
      "name": "NotListed",
      "type": "error"
    },
    {
      "inputs": [],
      "name": "NotListingOwner",
      "type": "error"
    },
    {
      "inputs": [],
      "name": "NotVaildBuyer",
      "type": "error"
    },
    {
      "inputs": [],
      "name": "NotVaildLister",
      "type": "error"
    },
    {
      "inputs": [],
      "name": "OrderDoesExist",
      "type": "error"
    },
    {
      "inputs": [],
      "name": "OrderDoesNotExist",
      "type": "error"
    },
    {
      "inputs": [
        {
          "internalType": "address",
          "name": "owner",
          "type": "address"
        }
      ],
      "name": "OwnableInvalidOwner",
      "type": "error"
    },
    {
      "inputs": [
        {
          "internalType": "address",
          "name": "account",
          "type": "address"
        }
      ],
      "name": "OwnableUnauthorizedAccount",
      "type": "error"
    },
    {
      "inputs": [],
      "name": "ReentrancyGuardReentrantCall",
      "type": "error"
    },
    {
      "inputs": [],
      "name": "WithdrawFailed",
      "type": "error"
    },
    {
      "anonymous": false,
      "inputs": [
        {
          "indexed": true,
          "internalType": "address",
          "name": "owner",
          "type": "address"
        },
        {
          "indexed": true,
          "internalType": "address",
          "name": "approved",
          "type": "address"
        },
        {
          "indexed": true,
          "internalType": "uint256",
          "name": "tokenId",
          "type": "uint256"
        }
      ],
      "name": "Approval",
      "type": "event"
    },
    {
      "anonymous": false,
      "inputs": [
        {
          "indexed": true,
          "internalType": "address",
          "name": "owner",
          "type": "address"
        },
        {
          "indexed": true,
          "internalType": "address",
          "name": "operator",
          "type": "address"
        },
        {
          "indexed": false,
          "internalType": "bool",
          "name": "approved",
          "type": "bool"
        }
      ],
      "name": "ApprovalForAll",
      "type": "event"
    },
    {
      "anonymous": false,
      "inputs": [
        {
          "indexed": false,
          "internalType": "uint256",
          "name": "_fromTokenId",
          "type": "uint256"
        },
        {
          "indexed": false,
          "internalType": "uint256",
          "name": "_toTokenId",
          "type": "uint256"
        }
      ],
      "name": "BatchMetadataUpdate",
      "type": "event"
    },
    {
      "anonymous": false,
      "inputs": [
        {
          "indexed": true,
          "internalType": "address",
          "name": "seller",
          "type": "address"
        },
        {
          "indexed": false,
          "internalType": "uint256",
          "name": "tokenId",
          "type": "uint256"
        }
      ],
      "name": "ItemCanceled",
      "type": "event"
    },
    {
      "anonymous": false,
      "inputs": [
        {
          "indexed": true,
          "internalType": "address",
          "name": "seller",
          "type": "address"
        },
        {
          "indexed": false,
          "internalType": "uint256",
          "name": "tokenId",
          "type": "uint256"
        },
        {
          "indexed": false,
          "internalType": "uint256",
          "name": "quantity",
          "type": "uint256"
        },
        {
          "indexed": false,
          "internalType": "enum AsoEbiMarketPlace.ListingType",
          "name": "listingType",
          "type": "uint8"
        },
        {
          "indexed": false,
          "internalType": "uint256",
          "name": "pricePerItem",
          "type": "uint256"
        }
      ],
      "name": "ItemListed",
      "type": "event"
    },
    {
      "anonymous": false,
      "inputs": [
        {
          "indexed": true,
          "internalType": "address",
          "name": "seller",
          "type": "address"
        },
        {
          "indexed": false,
          "internalType": "uint256",
          "name": "tokenId",
          "type": "uint256"
        },
        {
          "indexed": false,
          "internalType": "uint256",
          "name": "price",
          "type": "uint256"
        },
        {
          "indexed": false,
          "internalType": "uint256",
          "name": "quantity",
          "type": "uint256"
        }
      ],
      "name": "ItemUpdated",
      "type": "event"
    },
    {
      "anonymous": false,
      "inputs": [
        {
          "indexed": false,
          "internalType": "uint256",
          "name": "_tokenId",
          "type": "uint256"
        }
      ],
      "name": "MetadataUpdate",
      "type": "event"
    },
    {
      "anonymous": false,
      "inputs": [
        {
          "indexed": true,
          "internalType": "address",
          "name": "buyer",
          "type": "address"
        },
        {
          "indexed": false,
          "internalType": "uint256",
          "name": "tokenId",
          "type": "uint256"
        },
        {
          "indexed": false,
          "internalType": "uint256",
          "name": "quantity",
          "type": "uint256"
        },
        {
          "indexed": false,
          "internalType": "enum AsoEbiMarketPlace.OrderType",
          "name": "orderType",
          "type": "uint8"
        }
      ],
      "name": "OrderAccepted",
      "type": "event"
    },
    {
      "anonymous": false,
      "inputs": [
        {
          "indexed": true,
          "internalType": "address",
          "name": "buyer",
          "type": "address"
        },
        {
          "indexed": false,
          "internalType": "uint256",
          "name": "tokenId",
          "type": "uint256"
        }
      ],
      "name": "OrderCanceled",
      "type": "event"
    },
    {
      "anonymous": false,
      "inputs": [
        {
          "indexed": true,
          "internalType": "address",
          "name": "buyer",
          "type": "address"
        },
        {
          "indexed": false,
          "internalType": "uint256",
          "name": "tokenId",
          "type": "uint256"
        },
        {
          "indexed": false,
          "internalType": "uint256",
          "name": "quantity",
          "type": "uint256"
        },
        {
          "indexed": false,
          "internalType": "enum AsoEbiMarketPlace.OrderType",
          "name": "orderType",
          "type": "uint8"
        }
      ],
      "name": "OrderCreated",
      "type": "event"
    },
    {
      "anonymous": false,
      "inputs": [
        {
          "indexed": true,
          "internalType": "address",
          "name": "previousOwner",
          "type": "address"
        },
        {
          "indexed": true,
          "internalType": "address",
          "name": "newOwner",
          "type": "address"
        }
      ],
      "name": "OwnershipTransferred",
      "type": "event"
    },
    {
      "anonymous": false,
      "inputs": [
        {
          "indexed": true,
          "internalType": "address",
          "name": "from",
          "type": "address"
        },
        {
          "indexed": true,
          "internalType": "address",
          "name": "to",
          "type": "address"
        },
        {
          "indexed": true,
          "internalType": "uint256",
          "name": "tokenId",
          "type": "uint256"
        }
      ],
      "name": "Transfer",
      "type": "event"
    },
    {
      "anonymous": false,
      "inputs": [
        {
          "indexed": true,
          "internalType": "address",
          "name": "user",
          "type": "address"
        },
        {
          "indexed": false,
          "internalType": "string",
          "name": "displayName",
          "type": "string"
        },
        {
          "indexed": false,
          "internalType": "enum AsoEbiMarketPlace.RoleType",
          "name": "roleType",
          "type": "uint8"
        }
      ],
      "name": "UserRegister",
      "type": "event"
    },
    {
      "inputs": [
        {
          "internalType": "uint256",
          "name": "_tokenId",
          "type": "uint256"
        },
        {
          "internalType": "address",
          "name": "_buyer",
          "type": "address"
        }
      ],
      "name": "acceptOrder",
      "outputs": [],
      "stateMutability": "nonpayable",
      "type": "function"
    },
    {
      "inputs": [],
      "name": "acceptedOrderCount",
      "outputs": [
        {
          "internalType": "uint256",
          "name": "",
          "type": "uint256"
        }
      ],
      "stateMutability": "view",
      "type": "function"
    },
    {
      "inputs": [
        {
          "internalType": "address",
          "name": "to",
          "type": "address"
        },
        {
          "internalType": "uint256",
          "name": "tokenId",
          "type": "uint256"
        }
      ],
      "name": "approve",
      "outputs": [],
      "stateMutability": "nonpayable",
      "type": "function"
    },
    {
      "inputs": [
        {
          "internalType": "address",
          "name": "owner",
          "type": "address"
        }
      ],
      "name": "balanceOf",
      "outputs": [
        {
          "internalType": "uint256",
          "name": "",
          "type": "uint256"
        }
      ],
      "stateMutability": "view",
      "type": "function"
    },
    {
      "inputs": [
        {
          "internalType": "uint256",
          "name": "_tokenId",
          "type": "uint256"
        }
      ],
      "name": "cancelListing",
      "outputs": [],
      "stateMutability": "nonpayable",
      "type": "function"
    },
    {
      "inputs": [
        {
          "internalType": "uint256",
          "name": "_tokenId",
          "type": "uint256"
        }
      ],
      "name": "cancelOrder",
      "outputs": [],
      "stateMutability": "nonpayable",
      "type": "function"
    },
    {
      "inputs": [],
      "name": "escrowAddress",
      "outputs": [
        {
          "internalType": "address",
          "name": "",
          "type": "address"
        }
      ],
      "stateMutability": "view",
      "type": "function"
    },
    {
      "inputs": [
        {
          "internalType": "uint256",
          "name": "tokenId",
          "type": "uint256"
        }
      ],
      "name": "getApproved",
      "outputs": [
        {
          "internalType": "address",
          "name": "",
          "type": "address"
        }
      ],
      "stateMutability": "view",
      "type": "function"
    },
    {
      "inputs": [
        {
          "internalType": "address",
          "name": "owner",
          "type": "address"
        },
        {
          "internalType": "address",
          "name": "operator",
          "type": "address"
        }
      ],
      "name": "isApprovedForAll",
      "outputs": [
        {
          "internalType": "bool",
          "name": "",
          "type": "bool"
        }
      ],
      "stateMutability": "view",
      "type": "function"
    },
    {
      "inputs": [
        {
          "internalType": "uint256",
          "name": "_tokenId",
          "type": "uint256"
        },
        {
          "internalType": "uint256",
          "name": "_quantity",
          "type": "uint256"
        },
        {
          "internalType": "uint256",
          "name": "_pricePerItem",
          "type": "uint256"
        }
      ],
      "name": "listItem",
      "outputs": [],
      "stateMutability": "nonpayable",
      "type": "function"
    },
    {
      "inputs": [
        {
          "internalType": "uint256",
          "name": "",
          "type": "uint256"
        }
      ],
      "name": "listings",
      "outputs": [
        {
          "internalType": "address",
          "name": "owner",
          "type": "address"
        },
        {
          "internalType": "uint256",
          "name": "pricePerItem",
          "type": "uint256"
        },
        {
          "internalType": "uint256",
          "name": "listingTime",
          "type": "uint256"
        },
        {
          "internalType": "bool",
          "name": "isListed",
          "type": "bool"
        },
        {
          "internalType": "enum AsoEbiMarketPlace.ListingType",
          "name": "listingType",
          "type": "uint8"
        },
        {
          "internalType": "uint256",
          "name": "quantityLeft",
          "type": "uint256"
        }
      ],
      "stateMutability": "view",
      "type": "function"
    },
    {
      "inputs": [
        {
          "internalType": "uint256",
          "name": "_tokenId",
          "type": "uint256"
        },
        {
          "internalType": "uint256",
          "name": "_quantity",
          "type": "uint256"
        },
        {
          "internalType": "string",
          "name": "_shippingInfo",
          "type": "string"
        }
      ],
      "name": "makeOrder",
      "outputs": [],
      "stateMutability": "payable",
      "type": "function"
    },
    {
      "inputs": [
        {
          "internalType": "string",
          "name": "uri",
          "type": "string"
        }
      ],
      "name": "mint",
      "outputs": [],
      "stateMutability": "nonpayable",
      "type": "function"
    },
    {
      "inputs": [],
      "name": "name",
      "outputs": [
        {
          "internalType": "string",
          "name": "",
          "type": "string"
        }
      ],
      "stateMutability": "view",
      "type": "function"
    },
    {
      "inputs": [],
      "name": "nextTokenId",
      "outputs": [
        {
          "internalType": "uint256",
          "name": "",
          "type": "uint256"
        }
      ],
      "stateMutability": "view",
      "type": "function"
    },
    {
      "inputs": [],
      "name": "nftAddress",
      "outputs": [
        {
          "internalType": "contract IERC721",
          "name": "",
          "type": "address"
        }
      ],
      "stateMutability": "view",
      "type": "function"
    },
    {
      "inputs": [
        {
          "internalType": "uint256",
          "name": "",
          "type": "uint256"
        },
        {
          "internalType": "address",
          "name": "",
          "type": "address"
        }
      ],
      "name": "orders",
      "outputs": [
        {
          "internalType": "uint256",
          "name": "quantity",
          "type": "uint256"
        },
        {
          "internalType": "string",
          "name": "shippingInfo",
          "type": "string"
        },
        {
          "internalType": "uint256",
          "name": "timeofOrder",
          "type": "uint256"
        },
        {
          "internalType": "enum AsoEbiMarketPlace.OrderStatus",
          "name": "orderStatus",
          "type": "uint8"
        },
        {
          "internalType": "enum AsoEbiMarketPlace.OrderType",
          "name": "orderType",
          "type": "uint8"
        },
        {
          "internalType": "uint256",
          "name": "totalPrice",
          "type": "uint256"
        }
      ],
      "stateMutability": "view",
      "type": "function"
    },
    {
      "inputs": [],
      "name": "owner",
      "outputs": [
        {
          "internalType": "address",
          "name": "",
          "type": "address"
        }
      ],
      "stateMutability": "view",
      "type": "function"
    },
    {
      "inputs": [
        {
          "internalType": "uint256",
          "name": "tokenId",
          "type": "uint256"
        }
      ],
      "name": "ownerOf",
      "outputs": [
        {
          "internalType": "address",
          "name": "",
          "type": "address"
        }
      ],
      "stateMutability": "view",
      "type": "function"
    },
    {
      "inputs": [
        {
          "internalType": "string",
          "name": "_displayName",
          "type": "string"
        },
        {
          "internalType": "enum AsoEbiMarketPlace.RoleType",
          "name": "_roleType",
          "type": "uint8"
        }
      ],
      "name": "registerUser",
      "outputs": [],
      "stateMutability": "nonpayable",
      "type": "function"
    },
    {
      "inputs": [],
      "name": "renounceOwnership",
      "outputs": [],
      "stateMutability": "nonpayable",
      "type": "function"
    },
    {
      "inputs": [
        {
          "internalType": "address",
          "name": "from",
          "type": "address"
        },
        {
          "internalType": "address",
          "name": "to",
          "type": "address"
        },
        {
          "internalType": "uint256",
          "name": "tokenId",
          "type": "uint256"
        }
      ],
      "name": "safeTransferFrom",
      "outputs": [],
      "stateMutability": "nonpayable",
      "type": "function"
    },
    {
      "inputs": [
        {
          "internalType": "address",
          "name": "from",
          "type": "address"
        },
        {
          "internalType": "address",
          "name": "to",
          "type": "address"
        },
        {
          "internalType": "uint256",
          "name": "tokenId",
          "type": "uint256"
        },
        {
          "internalType": "bytes",
          "name": "data",
          "type": "bytes"
        }
      ],
      "name": "safeTransferFrom",
      "outputs": [],
      "stateMutability": "nonpayable",
      "type": "function"
    },
    {
      "inputs": [
        {
          "internalType": "address",
          "name": "operator",
          "type": "address"
        },
        {
          "internalType": "bool",
          "name": "approved",
          "type": "bool"
        }
      ],
      "name": "setApprovalForAll",
      "outputs": [],
      "stateMutability": "nonpayable",
      "type": "function"
    },
    {
      "inputs": [
        {
          "internalType": "bytes4",
          "name": "interfaceId",
          "type": "bytes4"
        }
      ],
      "name": "supportsInterface",
      "outputs": [
        {
          "internalType": "bool",
          "name": "",
          "type": "bool"
        }
      ],
      "stateMutability": "view",
      "type": "function"
    },
    {
      "inputs": [],
      "name": "symbol",
      "outputs": [
        {
          "internalType": "string",
          "name": "",
          "type": "string"
        }
      ],
      "stateMutability": "view",
      "type": "function"
    },
    {
      "inputs": [
        {
          "internalType": "uint256",
          "name": "tokenId",
          "type": "uint256"
        }
      ],
      "name": "tokenURI",
      "outputs": [
        {
          "internalType": "string",
          "name": "",
          "type": "string"
        }
      ],
      "stateMutability": "view",
      "type": "function"
    },
    {
      "inputs": [
        {
          "internalType": "address",
          "name": "from",
          "type": "address"
        },
        {
          "internalType": "address",
          "name": "to",
          "type": "address"
        },
        {
          "internalType": "uint256",
          "name": "tokenId",
          "type": "uint256"
        }
      ],
      "name": "transferFrom",
      "outputs": [],
      "stateMutability": "nonpayable",
      "type": "function"
    },
    {
      "inputs": [
        {
          "internalType": "address",
          "name": "newOwner",
          "type": "address"
        }
      ],
      "name": "transferOwnership",
      "outputs": [],
      "stateMutability": "nonpayable",
      "type": "function"
    },
    {
      "inputs": [
        {
          "internalType": "address",
          "name": "_escrowAddress",
          "type": "address"
        }
      ],
      "name": "updateEscrowAddress",
      "outputs": [],
      "stateMutability": "nonpayable",
      "type": "function"
    },
    {
      "inputs": [
        {
          "internalType": "uint256",
          "name": "_tokenId",
          "type": "uint256"
        },
        {
          "internalType": "uint256",
          "name": "_pricePerItem",
          "type": "uint256"
        },
        {
          "internalType": "uint256",
          "name": "_quantity",
          "type": "uint256"
        }
      ],
      "name": "updateListing",
      "outputs": [],
      "stateMutability": "nonpayable",
      "type": "function"
    },
    {
      "inputs": [
        {
          "internalType": "address",
          "name": "",
          "type": "address"
        }
      ],
      "name": "users",
      "outputs": [
        {
          "internalType": "string",
          "name": "displayName",
          "type": "string"
        },
        {
          "internalType": "enum AsoEbiMarketPlace.RoleType",
          "name": "roleType",
          "type": "uint8"
        },
        {
          "internalType": "bool",
          "name": "isRegistered",
          "type": "bool"
        }
      ],
      "stateMutability": "view",
      "type": "function"
    }
  ],
  "bytecode": "0x608060405230600a60006101000a81548173ffffffffffffffffffffffffffffffffffffffff021916908373ffffffffffffffffffffffffffffffffffffffff16021790555034801561005157600080fd5b50604051615f4c380380615f4c833981810160405281019061007391906102fc565b336040518060400160405280601181526020017f41736f4562694d61726b6574506c6163650000000000000000000000000000008152506040518060400160405280600481526020017f41454d500000000000000000000000000000000000000000000000000000000081525081600090816100ef9190610579565b5080600190816100ff9190610579565b505050600073ffffffffffffffffffffffffffffffffffffffff168173ffffffffffffffffffffffffffffffffffffffff16036101745760006040517f1e4fbdf700000000000000000000000000000000000000000000000000000000815260040161016b919061065a565b60405180910390fd5b610183816101d360201b60201c565b50600160078190555080600b60006101000a81548173ffffffffffffffffffffffffffffffffffffffff021916908373ffffffffffffffffffffffffffffffffffffffff16021790555050610675565b6000600660009054906101000a900473ffffffffffffffffffffffffffffffffffffffff16905081600660006101000a81548173ffffffffffffffffffffffffffffffffffffffff021916908373ffffffffffffffffffffffffffffffffffffffff1602179055508173ffffffffffffffffffffffffffffffffffffffff168173ffffffffffffffffffffffffffffffffffffffff167f8be0079c531659141344cd1fd0a4f28419497f9722a3daafe3b4186f6b6457e060405160405180910390a35050565b600080fd5b600073ffffffffffffffffffffffffffffffffffffffff82169050919050565b60006102c98261029e565b9050919050565b6102d9816102be565b81146102e457600080fd5b50565b6000815190506102f6816102d0565b92915050565b60006020828403121561031257610311610299565b5b6000610320848285016102e7565b91505092915050565b600081519050919050565b7f4e487b7100000000000000000000000000000000000000000000000000000000600052604160045260246000fd5b7f4e487b7100000000000000000000000000000000000000000000000000000000600052602260045260246000fd5b600060028204905060018216806103aa57607f821691505b6020821081036103bd576103bc610363565b5b50919050565b60008190508160005260206000209050919050565b60006020601f8301049050919050565b600082821b905092915050565b6000600883026104257fffffffffffffffffffffffffffffffffffffffffffffffffffffffffffffffff826103e8565b61042f86836103e8565b95508019841693508086168417925050509392505050565b6000819050919050565b6000819050919050565b600061047661047161046c84610447565b610451565b610447565b9050919050565b6000819050919050565b6104908361045b565b6104a461049c8261047d565b8484546103f5565b825550505050565b600090565b6104b96104ac565b6104c4818484610487565b505050565b5b818110156104e8576104dd6000826104b1565b6001810190506104ca565b5050565b601f82111561052d576104fe816103c3565b610507846103d8565b81016020851015610516578190505b61052a610522856103d8565b8301826104c9565b50505b505050565b600082821c905092915050565b600061055060001984600802610532565b1980831691505092915050565b6000610569838361053f565b9150826002028217905092915050565b61058282610329565b67ffffffffffffffff81111561059b5761059a610334565b5b6105a58254610392565b6105b08282856104ec565b600060209050601f8311600181146105e357600084156105d1578287015190505b6105db858261055d565b865550610643565b601f1984166105f1866103c3565b60005b82811015610619578489015182556001820191506020850194506020810190506105f4565b868310156106365784890151610632601f89168261053f565b8355505b6001600288020188555050505b505050505050565b610654816102be565b82525050565b600060208201905061066f600083018461064b565b92915050565b6158c8806106846000396000f3fe6080604052600436106101e35760003560e01c806375794a3c11610102578063cb23617a11610095578063e985e9c511610064578063e985e9c5146106ff578063ec16b94a1461073c578063f2fde38b14610765578063f6cf2a161461078e576101e3565b8063cb23617a14610640578063d33df1ac14610669578063d85d3d2714610694578063de74e57b146106bd576101e3565b8063a22cb465116100d1578063a22cb46514610572578063a87430ba1461059b578063b88d4fde146105da578063c87b56dd14610603576101e3565b806375794a3c146104d557806379d6f38f146105005780638da5cb5b1461051c57806395d89b4114610547576101e3565b806341e59c281161017a5780636352211e116101495780636352211e146104025780636caddb041461043f57806370a0823114610481578063715018a6146104be576101e3565b806341e59c281461035c57806342842e0e14610385578063514fcac7146103ae5780635bf8633a146103d7576101e3565b80630d5defa4116101b65780630d5defa4146102b657806323b872dd146102e1578063305a67a81461030a578063338e12eb14610333576101e3565b806301ffc9a7146101e857806306fdde0314610225578063081812fc14610250578063095ea7b31461028d575b600080fd5b3480156101f457600080fd5b5061020f600480360381019061020a9190614689565b6107b7565b60405161021c91906146d1565b60405180910390f35b34801561023157600080fd5b5061023a6107c9565b604051610247919061477c565b60405180910390f35b34801561025c57600080fd5b50610277600480360381019061027291906147d4565b61085b565b6040516102849190614842565b60405180910390f35b34801561029957600080fd5b506102b460048036038101906102af9190614889565b610877565b005b3480156102c257600080fd5b506102cb61088d565b6040516102d89190614842565b60405180910390f35b3480156102ed57600080fd5b50610308600480360381019061030391906148c9565b6108b3565b005b34801561031657600080fd5b50610331600480360381019061032c91906147d4565b6109b5565b005b34801561033f57600080fd5b5061035a60048036038101906103559190614a76565b610dd7565b005b34801561036857600080fd5b50610383600480360381019061037e9190614ad2565b610f4d565b005b34801561039157600080fd5b506103ac60048036038101906103a791906148c9565b610f99565b005b3480156103ba57600080fd5b506103d560048036038101906103d091906147d4565b610fb9565b005b3480156103e357600080fd5b506103ec6114ed565b6040516103f99190614b5e565b60405180910390f35b34801561040e57600080fd5b50610429600480360381019061042491906147d4565b611513565b6040516104369190614842565b60405180910390f35b34801561044b57600080fd5b5061046660048036038101906104619190614b79565b611525565b60405161047896959493929190614c87565b60405180910390f35b34801561048d57600080fd5b506104a860048036038101906104a39190614ad2565b611610565b6040516104b59190614cef565b60405180910390f35b3480156104ca57600080fd5b506104d36116ca565b005b3480156104e157600080fd5b506104ea6116de565b6040516104f79190614cef565b60405180910390f35b61051a60048036038101906105159190614d0a565b6116e4565b005b34801561052857600080fd5b50610531611c4a565b60405161053e9190614842565b60405180910390f35b34801561055357600080fd5b5061055c611c74565b604051610569919061477c565b60405180910390f35b34801561057e57600080fd5b5061059960048036038101906105949190614da5565b611d06565b005b3480156105a757600080fd5b506105c260048036038101906105bd9190614ad2565b611d1c565b6040516105d193929190614e2d565b60405180910390f35b3480156105e657600080fd5b5061060160048036038101906105fc9190614f0c565b611de8565b005b34801561060f57600080fd5b5061062a600480360381019061062591906147d4565b611e05565b604051610637919061477c565b60405180910390f35b34801561064c57600080fd5b5061066760048036038101906106629190614b79565b611e17565b005b34801561067557600080fd5b5061067e612398565b60405161068b9190614cef565b60405180910390f35b3480156106a057600080fd5b506106bb60048036038101906106b69190614f8f565b61239e565b005b3480156106c957600080fd5b506106e460048036038101906106df91906147d4565b6124fc565b6040516106f696959493929190615020565b60405180910390f35b34801561070b57600080fd5b5061072660048036038101906107219190615081565b612572565b60405161073391906146d1565b60405180910390f35b34801561074857600080fd5b50610763600480360381019061075e91906150c1565b612606565b005b34801561077157600080fd5b5061078c60048036038101906107879190614ad2565b612cab565b005b34801561079a57600080fd5b506107b560048036038101906107b091906150c1565b612d31565b005b60006107c2826130cc565b9050919050565b6060600080546107d890615143565b80601f016020809104026020016040519081016040528092919081815260200182805461080490615143565b80156108515780601f1061082657610100808354040283529160200191610851565b820191906000526020600020905b81548152906001019060200180831161083457829003601f168201915b5050505050905090565b60006108668261312d565b50610870826131b5565b9050919050565b61088982826108846131f2565b6131fa565b5050565b600b60009054906101000a900473ffffffffffffffffffffffffffffffffffffffff1681565b600073ffffffffffffffffffffffffffffffffffffffff168273ffffffffffffffffffffffffffffffffffffffff16036109255760006040517f64a0ae9200000000000000000000000000000000000000000000000000000000815260040161091c9190614842565b60405180910390fd5b600061093983836109346131f2565b61320c565b90508373ffffffffffffffffffffffffffffffffffffffff168173ffffffffffffffffffffffffffffffffffffffff16146109af578382826040517f64283d7b0000000000000000000000000000000000000000000000000000000081526004016109a693929190615174565b60405180910390fd5b50505050565b600160038111156109c9576109c8614bc8565b5b600d60003373ffffffffffffffffffffffffffffffffffffffff1673ffffffffffffffffffffffffffffffffffffffff16815260200190815260200160002060010160009054906101000a900460ff166003811115610a2b57610a2a614bc8565b5b1480610aaa575060026003811115610a4657610a45614bc8565b5b600d60003373ffffffffffffffffffffffffffffffffffffffff1673ffffffffffffffffffffffffffffffffffffffff16815260200190815260200160002060010160009054906101000a900460ff166003811115610aa857610aa7614bc8565b5b145b610ae0576040517f2cc9d32200000000000000000000000000000000000000000000000000000000815260040160405180910390fd5b80336000600e60008481526020019081526020016000206040518060c00160405290816000820160009054906101000a900473ffffffffffffffffffffffffffffffffffffffff1673ffffffffffffffffffffffffffffffffffffffff1673ffffffffffffffffffffffffffffffffffffffff16815260200160018201548152602001600282015481526020016003820160009054906101000a900460ff161515151581526020016003820160019054906101000a900460ff166002811115610bac57610bab614bc8565b5b6002811115610bbe57610bbd614bc8565b5b815260200160048201548152505090506000816040015111610c0c576040517f665c1c5700000000000000000000000000000000000000000000000000000000815260040160405180910390fd5b8173ffffffffffffffffffffffffffffffffffffffff16816000015173ffffffffffffffffffffffffffffffffffffffff1614610c75576040517f7c62d69f00000000000000000000000000000000000000000000000000000000815260040160405180910390fd5b600e6000858152602001908152602001600020600080820160006101000a81549073ffffffffffffffffffffffffffffffffffffffff0219169055600182016000905560028201600090556003820160006101000a81549060ff02191690556003820160016101000a81549060ff021916905560048201600090555050600a60009054906101000a900473ffffffffffffffffffffffffffffffffffffffff1673ffffffffffffffffffffffffffffffffffffffff166342842e0e3033876040518463ffffffff1660e01b8152600401610d51939291906151ab565b600060405180830381600087803b158015610d6b57600080fd5b505af1158015610d7f573d6000803e3d6000fd5b505050503373ffffffffffffffffffffffffffffffffffffffff167ff86e54241e209ee4b38db8e64af9614b083d18f23c32f3293c8a87c6b8bf894385604051610dc99190614cef565b60405180910390a250505050565b60001515600d60003373ffffffffffffffffffffffffffffffffffffffff1673ffffffffffffffffffffffffffffffffffffffff16815260200190815260200160002060010160019054906101000a900460ff161515143390610e70576040517f4a2c8287000000000000000000000000000000000000000000000000000000008152600401610e679190614842565b60405180910390fd5b506040518060600160405280838152602001826003811115610e9557610e94614bc8565b5b815260200160011515815250600d60003373ffffffffffffffffffffffffffffffffffffffff1673ffffffffffffffffffffffffffffffffffffffff1681526020019081526020016000206000820151816000019081610ef59190615384565b5060208201518160010160006101000a81548160ff02191690836003811115610f2157610f20614bc8565b5b021790555060408201518160010160016101000a81548160ff0219169083151502179055509050505050565b610f55613426565b80600b60006101000a81548173ffffffffffffffffffffffffffffffffffffffff021916908373ffffffffffffffffffffffffffffffffffffffff16021790555050565b610fb483838360405180602001604052806000815250611de8565b505050565b610fc16134ad565b80336000600f600084815260200190815260200160002060008373ffffffffffffffffffffffffffffffffffffffff1673ffffffffffffffffffffffffffffffffffffffff1681526020019081526020016000206040518060c00160405290816000820154815260200160018201805461103a90615143565b80601f016020809104026020016040519081016040528092919081815260200182805461106690615143565b80156110b35780601f10611088576101008083540402835291602001916110b3565b820191906000526020600020905b81548152906001019060200180831161109657829003601f168201915b50505050508152602001600282015481526020016003820160009054906101000a900460ff1660028111156110eb576110ea614bc8565b5b60028111156110fd576110fc614bc8565b5b81526020016003820160019054906101000a900460ff16600281111561112657611125614bc8565b5b600281111561113857611137614bc8565b5b815260200160048201548152505090506000816000015111801561118457506001600281111561116b5761116a614bc8565b5b8160600151600281111561118257611181614bc8565b5b145b6111ba576040517f5dcaf2d700000000000000000000000000000000000000000000000000000000815260040160405180910390fd5b6000600f600086815260200190815260200160002060003373ffffffffffffffffffffffffffffffffffffffff1673ffffffffffffffffffffffffffffffffffffffff1681526020019081526020016000206040518060c00160405290816000820154815260200160018201805461123190615143565b80601f016020809104026020016040519081016040528092919081815260200182805461125d90615143565b80156112aa5780601f1061127f576101008083540402835291602001916112aa565b820191906000526020600020905b81548152906001019060200180831161128d57829003601f168201915b50505050508152602001600282015481526020016003820160009054906101000a900460ff1660028111156112e2576112e1614bc8565b5b60028111156112f4576112f3614bc8565b5b81526020016003820160019054906101000a900460ff16600281111561131d5761131c614bc8565b5b600281111561132f5761132e614bc8565b5b8152602001600482015481525050905060008160a001519050600f600087815260200190815260200160002060003373ffffffffffffffffffffffffffffffffffffffff1673ffffffffffffffffffffffffffffffffffffffff1681526020019081526020016000206000808201600090556001820160006113b191906145c0565b60028201600090556003820160006101000a81549060ff02191690556003820160016101000a81549060ff02191690556004820160009055505060003373ffffffffffffffffffffffffffffffffffffffff168260405161141190615487565b60006040518083038185875af1925050503d806000811461144e576040519150601f19603f3d011682016040523d82523d6000602084013e611453565b606091505b505090508061148e576040517f750b219c00000000000000000000000000000000000000000000000000000000815260040160405180910390fd5b3373ffffffffffffffffffffffffffffffffffffffff167fafe5d45b77c7cea746dab67e30e6ca60c00cec51787feb121441c48ec20e3e57886040516114d49190614cef565b60405180910390a25050505050506114ea6134f3565b50565b600a60009054906101000a900473ffffffffffffffffffffffffffffffffffffffff1681565b600061151e8261312d565b9050919050565b600f6020528160005260406000206020528060005260406000206000915091505080600001549080600101805461155b90615143565b80601f016020809104026020016040519081016040528092919081815260200182805461158790615143565b80156115d45780601f106115a9576101008083540402835291602001916115d4565b820191906000526020600020905b8154815290600101906020018083116115b757829003601f168201915b5050505050908060020154908060030160009054906101000a900460ff16908060030160019054906101000a900460ff16908060040154905086565b60008073ffffffffffffffffffffffffffffffffffffffff168273ffffffffffffffffffffffffffffffffffffffff16036116835760006040517f89c62b6400000000000000000000000000000000000000000000000000000000815260040161167a9190614842565b60405180910390fd5b600360008373ffffffffffffffffffffffffffffffffffffffff1673ffffffffffffffffffffffffffffffffffffffff168152602001908152602001600020549050919050565b6116d2613426565b6116dc60006134fd565b565b60095481565b6003808111156116f7576116f6614bc8565b5b600d60003373ffffffffffffffffffffffffffffffffffffffff1673ffffffffffffffffffffffffffffffffffffffff16815260200190815260200160002060010160009054906101000a900460ff16600381111561175957611758614bc8565b5b14611790576040517f0177ae6b00000000000000000000000000000000000000000000000000000000815260040160405180910390fd5b82336000600f600084815260200190815260200160002060008373ffffffffffffffffffffffffffffffffffffffff1673ffffffffffffffffffffffffffffffffffffffff1681526020019081526020016000206040518060c00160405290816000820154815260200160018201805461180990615143565b80601f016020809104026020016040519081016040528092919081815260200182805461183590615143565b80156118825780601f1061185757610100808354040283529160200191611882565b820191906000526020600020905b81548152906001019060200180831161186557829003601f168201915b50505050508152602001600282015481526020016003820160009054906101000a900460ff1660028111156118ba576118b9614bc8565b5b60028111156118cc576118cb614bc8565b5b81526020016003820160019054906101000a900460ff1660028111156118f5576118f4614bc8565b5b600281111561190757611906614bc8565b5b8152602001600482015481525050905060008160000151148061192e575060008160400151145b611964576040517ffc64cc7900000000000000000000000000000000000000000000000000000000815260040160405180910390fd5b6000851161199e576040517f524f409b00000000000000000000000000000000000000000000000000000000815260040160405180910390fd5b6119a886866135c3565b6000600e6000888152602001908152602001600020905085816004015410156119fd576040517f524f409b00000000000000000000000000000000000000000000000000000000815260040160405180910390fd5b6000868260010154611a0f91906154cb565b905080341015611a4b576040517f356680b700000000000000000000000000000000000000000000000000000000815260040160405180910390fd5b86826004016000828254611a5f919061550d565b92505081905550600060016002811115611a7c57611a7b614bc8565b5b8360030160019054906101000a900460ff166002811115611aa057611a9f614bc8565b5b03611aae5760019050611ab3565b600290505b6040518060c0016040528089815260200188815260200142815260200160016002811115611ae457611ae3614bc8565b5b8152602001826002811115611afc57611afb614bc8565b5b815260200134815250600f60008b815260200190815260200160002060003373ffffffffffffffffffffffffffffffffffffffff1673ffffffffffffffffffffffffffffffffffffffff168152602001908152602001600020600082015181600001556020820151816001019081611b749190615384565b506040820151816002015560608201518160030160006101000a81548160ff02191690836002811115611baa57611ba9614bc8565b5b021790555060808201518160030160016101000a81548160ff02191690836002811115611bda57611bd9614bc8565b5b021790555060a082015181600401559050503373ffffffffffffffffffffffffffffffffffffffff167f1e781a7a5c72d19719e89f15c6e81c986adfb6c4ea0930e82b793a8985bbae678a8a6001604051611c3793929190615541565b60405180910390a2505050505050505050565b6000600660009054906101000a900473ffffffffffffffffffffffffffffffffffffffff16905090565b606060018054611c8390615143565b80601f0160208091040260200160405190810160405280929190818152602001828054611caf90615143565b8015611cfc5780601f10611cd157610100808354040283529160200191611cfc565b820191906000526020600020905b815481529060010190602001808311611cdf57829003601f168201915b5050505050905090565b611d18611d116131f2565b838361379a565b5050565b600d602052806000526040600020600091509050806000018054611d3f90615143565b80601f0160208091040260200160405190810160405280929190818152602001828054611d6b90615143565b8015611db85780601f10611d8d57610100808354040283529160200191611db8565b820191906000526020600020905b815481529060010190602001808311611d9b57829003601f168201915b5050505050908060010160009054906101000a900460ff16908060010160019054906101000a900460ff16905083565b611df38484846108b3565b611dff84848484613909565b50505050565b6060611e1082613ac0565b9050919050565b611e1f6134ad565b81336000600e60008481526020019081526020016000206040518060c00160405290816000820160009054906101000a900473ffffffffffffffffffffffffffffffffffffffff1673ffffffffffffffffffffffffffffffffffffffff1673ffffffffffffffffffffffffffffffffffffffff16815260200160018201548152602001600282015481526020016003820160009054906101000a900460ff161515151581526020016003820160019054906101000a900460ff166002811115611eeb57611eea614bc8565b5b6002811115611efd57611efc614bc8565b5b815260200160048201548152505090506000816040015111611f4b576040517f665c1c5700000000000000000000000000000000000000000000000000000000815260040160405180910390fd5b8173ffffffffffffffffffffffffffffffffffffffff16816000015173ffffffffffffffffffffffffffffffffffffffff1614611fb4576040517f7c62d69f00000000000000000000000000000000000000000000000000000000815260040160405180910390fd5b84846000600f600084815260200190815260200160002060008373ffffffffffffffffffffffffffffffffffffffff1673ffffffffffffffffffffffffffffffffffffffff1681526020019081526020016000206040518060c00160405290816000820154815260200160018201805461202d90615143565b80601f016020809104026020016040519081016040528092919081815260200182805461205990615143565b80156120a65780601f1061207b576101008083540402835291602001916120a6565b820191906000526020600020905b81548152906001019060200180831161208957829003601f168201915b50505050508152602001600282015481526020016003820160009054906101000a900460ff1660028111156120de576120dd614bc8565b5b60028111156120f0576120ef614bc8565b5b81526020016003820160019054906101000a900460ff16600281111561211957612118614bc8565b5b600281111561212b5761212a614bc8565b5b815260200160048201548152505090506000816000015111801561217757506001600281111561215e5761215d614bc8565b5b8160600151600281111561217557612174614bc8565b5b145b6121ad576040517f5dcaf2d700000000000000000000000000000000000000000000000000000000815260040160405180910390fd5b6000600f60008a815260200190815260200160002060008973ffffffffffffffffffffffffffffffffffffffff1673ffffffffffffffffffffffffffffffffffffffff168152602001908152602001600020905060028160030160006101000a81548160ff0219169083600281111561222957612228614bc8565b5b02179055506000600e60008b81526020019081526020016000209050816000015481600401600082825461225d919061550d565b925050819055506001600c546122739190615578565b600c819055506000600b60009054906101000a900473ffffffffffffffffffffffffffffffffffffffff1690508073ffffffffffffffffffffffffffffffffffffffff16633fafc66f84600401543386600401548e600c546040518663ffffffff1660e01b81526004016122ea94939291906155ac565b6000604051808303818588803b15801561230357600080fd5b505af1158015612317573d6000803e3d6000fd5b50505050508973ffffffffffffffffffffffffffffffffffffffff167fbbef8c0f9cb5cf33a00a0f43f4c7d5705e06c3a47494265c4faa8cc921ca37538c85600001548660030160019054906101000a900460ff1660405161237b93929190615541565b60405180910390a25050505050505050506123946134f3565b5050565b600c5481565b600160038111156123b2576123b1614bc8565b5b600d60003373ffffffffffffffffffffffffffffffffffffffff1673ffffffffffffffffffffffffffffffffffffffff16815260200190815260200160002060010160009054906101000a900460ff16600381111561241457612413614bc8565b5b148061249357506002600381111561242f5761242e614bc8565b5b600d60003373ffffffffffffffffffffffffffffffffffffffff1673ffffffffffffffffffffffffffffffffffffffff16815260200190815260200160002060010160009054906101000a900460ff16600381111561249157612490614bc8565b5b145b6124c9576040517f2cc9d32200000000000000000000000000000000000000000000000000000000815260040160405180910390fd5b600960008154809291906124dc906155f1565b91905055506124ed33600954613bd3565b6124f960095482613bf1565b50565b600e6020528060005260406000206000915090508060000160009054906101000a900473ffffffffffffffffffffffffffffffffffffffff16908060010154908060020154908060030160009054906101000a900460ff16908060030160019054906101000a900460ff16908060040154905086565b6000600560008473ffffffffffffffffffffffffffffffffffffffff1673ffffffffffffffffffffffffffffffffffffffff16815260200190815260200160002060008373ffffffffffffffffffffffffffffffffffffffff1673ffffffffffffffffffffffffffffffffffffffff16815260200190815260200160002060009054906101000a900460ff16905092915050565b6001600381111561261a57612619614bc8565b5b600d60003373ffffffffffffffffffffffffffffffffffffffff1673ffffffffffffffffffffffffffffffffffffffff16815260200190815260200160002060010160009054906101000a900460ff16600381111561267c5761267b614bc8565b5b14806126fb57506002600381111561269757612696614bc8565b5b600d60003373ffffffffffffffffffffffffffffffffffffffff1673ffffffffffffffffffffffffffffffffffffffff16815260200190815260200160002060010160009054906101000a900460ff1660038111156126f9576126f8614bc8565b5b145b612731576040517f2cc9d32200000000000000000000000000000000000000000000000000000000815260040160405180910390fd5b82336000600e60008481526020019081526020016000206040518060c00160405290816000820160009054906101000a900473ffffffffffffffffffffffffffffffffffffffff1673ffffffffffffffffffffffffffffffffffffffff1673ffffffffffffffffffffffffffffffffffffffff16815260200160018201548152602001600282015481526020016003820160009054906101000a900460ff161515151581526020016003820160019054906101000a900460ff1660028111156127fd576127fc614bc8565b5b600281111561280f5761280e614bc8565b5b81526020016004820154815250509050600015158160600151151514612861576040517f8ee0aff300000000000000000000000000000000000000000000000000000000815260040160405180910390fd5b61286b8383613c4d565b600084116128a4576040517ebfc92100000000000000000000000000000000000000000000000000000000815260040160405180910390fd5b600085116128de576040517f524f409b00000000000000000000000000000000000000000000000000000000815260040160405180910390fd5b600a60009054906101000a900473ffffffffffffffffffffffffffffffffffffffff1673ffffffffffffffffffffffffffffffffffffffff166342842e0e3330896040518463ffffffff1660e01b815260040161293d939291906151ab565b600060405180830381600087803b15801561295757600080fd5b505af115801561296b573d6000803e3d6000fd5b5050505060006001600381111561298557612984614bc8565b5b600d60003373ffffffffffffffffffffffffffffffffffffffff1673ffffffffffffffffffffffffffffffffffffffff16815260200190815260200160002060010160009054906101000a900460ff1660038111156129e7576129e6614bc8565b5b03612b1f57600190506040518060c001604052803373ffffffffffffffffffffffffffffffffffffffff168152602001868152602001612a25613d2f565b8152602001600115158152602001826002811115612a4657612a45614bc8565b5b815260200187815250600e600089815260200190815260200160002060008201518160000160006101000a81548173ffffffffffffffffffffffffffffffffffffffff021916908373ffffffffffffffffffffffffffffffffffffffff160217905550602082015181600101556040820151816002015560608201518160030160006101000a81548160ff02191690831515021790555060808201518160030160016101000a81548160ff02191690836002811115612b0857612b07614bc8565b5b021790555060a08201518160040155905050612c4e565b600290506040518060c001604052803373ffffffffffffffffffffffffffffffffffffffff168152602001868152602001612b58613d2f565b8152602001600115158152602001826002811115612b7957612b78614bc8565b5b815260200187815250600e600089815260200190815260200160002060008201518160000160006101000a81548173ffffffffffffffffffffffffffffffffffffffff021916908373ffffffffffffffffffffffffffffffffffffffff160217905550602082015181600101556040820151816002015560608201518160030160006101000a81548160ff02191690831515021790555060808201518160030160016101000a81548160ff02191690836002811115612c3b57612c3a614bc8565b5b021790555060a082015181600401559050505b3373ffffffffffffffffffffffffffffffffffffffff167f8f8df21bf4dd9a7d8e8dd0ba431af58f639c822e9fac26e4e9fce5e9a03f87a788888489604051612c9a9493929190615639565b60405180910390a250505050505050565b612cb3613426565b600073ffffffffffffffffffffffffffffffffffffffff168173ffffffffffffffffffffffffffffffffffffffff1603612d255760006040517f1e4fbdf7000000000000000000000000000000000000000000000000000000008152600401612d1c9190614842565b60405180910390fd5b612d2e816134fd565b50565b60016003811115612d4557612d44614bc8565b5b600d60003373ffffffffffffffffffffffffffffffffffffffff1673ffffffffffffffffffffffffffffffffffffffff16815260200190815260200160002060010160009054906101000a900460ff166003811115612da757612da6614bc8565b5b1480612e26575060026003811115612dc257612dc1614bc8565b5b600d60003373ffffffffffffffffffffffffffffffffffffffff1673ffffffffffffffffffffffffffffffffffffffff16815260200190815260200160002060010160009054906101000a900460ff166003811115612e2457612e23614bc8565b5b145b612e5c576040517f2cc9d32200000000000000000000000000000000000000000000000000000000815260040160405180910390fd5b82336000600e60008481526020019081526020016000206040518060c00160405290816000820160009054906101000a900473ffffffffffffffffffffffffffffffffffffffff1673ffffffffffffffffffffffffffffffffffffffff1673ffffffffffffffffffffffffffffffffffffffff16815260200160018201548152602001600282015481526020016003820160009054906101000a900460ff161515151581526020016003820160019054906101000a900460ff166002811115612f2857612f27614bc8565b5b6002811115612f3a57612f39614bc8565b5b815260200160048201548152505090506000816040015111612f88576040517f665c1c5700000000000000000000000000000000000000000000000000000000815260040160405180910390fd5b8173ffffffffffffffffffffffffffffffffffffffff16816000015173ffffffffffffffffffffffffffffffffffffffff1614612ff1576040517f7c62d69f00000000000000000000000000000000000000000000000000000000815260040160405180910390fd5b60008411806130005750600085115b613036576040517faa7feadc00000000000000000000000000000000000000000000000000000000815260040160405180910390fd5b6000600e600088815260200190815260200160002090508581600101819055508481600401600082825461306a9190615578565b925050819055503373ffffffffffffffffffffffffffffffffffffffff167f77733dca0ac17c62ee3e7d103945ff9445b970f1dede99babb5715799d4818008888886040516130bb9392919061567e565b60405180910390a250505050505050565b6000634906490660e01b7bffffffffffffffffffffffffffffffffffffffffffffffffffffffff1916827bffffffffffffffffffffffffffffffffffffffffffffffffffffffff19161480613126575061312582613d37565b5b9050919050565b60008061313983613e19565b9050600073ffffffffffffffffffffffffffffffffffffffff168173ffffffffffffffffffffffffffffffffffffffff16036131ac57826040517f7e2732890000000000000000000000000000000000000000000000000000000081526004016131a39190614cef565b60405180910390fd5b80915050919050565b60006004600083815260200190815260200160002060009054906101000a900473ffffffffffffffffffffffffffffffffffffffff169050919050565b600033905090565b6132078383836001613e56565b505050565b60008061321884613e19565b9050600073ffffffffffffffffffffffffffffffffffffffff168373ffffffffffffffffffffffffffffffffffffffff161461325a5761325981848661401b565b5b600073ffffffffffffffffffffffffffffffffffffffff168173ffffffffffffffffffffffffffffffffffffffff16146132eb5761329c600085600080613e56565b6001600360008373ffffffffffffffffffffffffffffffffffffffff1673ffffffffffffffffffffffffffffffffffffffff168152602001908152602001600020600082825403925050819055505b600073ffffffffffffffffffffffffffffffffffffffff168573ffffffffffffffffffffffffffffffffffffffff161461336e576001600360008773ffffffffffffffffffffffffffffffffffffffff1673ffffffffffffffffffffffffffffffffffffffff168152602001908152602001600020600082825401925050819055505b846002600086815260200190815260200160002060006101000a81548173ffffffffffffffffffffffffffffffffffffffff021916908373ffffffffffffffffffffffffffffffffffffffff160217905550838573ffffffffffffffffffffffffffffffffffffffff168273ffffffffffffffffffffffffffffffffffffffff167fddf252ad1be2c89b69c2b068fc378daa952ba7f163c4a11628f55a4df523b3ef60405160405180910390a4809150509392505050565b61342e6131f2565b73ffffffffffffffffffffffffffffffffffffffff1661344c611c4a565b73ffffffffffffffffffffffffffffffffffffffff16146134ab5761346f6131f2565b6040517f118cdaa70000000000000000000000000000000000000000000000000000000081526004016134a29190614842565b60405180910390fd5b565b6002600754036134e9576040517f3ee5aeb500000000000000000000000000000000000000000000000000000000815260040160405180910390fd5b6002600781905550565b6001600781905550565b6000600660009054906101000a900473ffffffffffffffffffffffffffffffffffffffff16905081600660006101000a81548173ffffffffffffffffffffffffffffffffffffffff021916908373ffffffffffffffffffffffffffffffffffffffff1602179055508173ffffffffffffffffffffffffffffffffffffffff168173ffffffffffffffffffffffffffffffffffffffff167f8be0079c531659141344cd1fd0a4f28419497f9722a3daafe3b4186f6b6457e060405160405180910390a35050565b6000600e60008481526020019081526020016000206040518060c00160405290816000820160009054906101000a900473ffffffffffffffffffffffffffffffffffffffff1673ffffffffffffffffffffffffffffffffffffffff1673ffffffffffffffffffffffffffffffffffffffff16815260200160018201548152602001600282015481526020016003820160009054906101000a900460ff161515151581526020016003820160019054906101000a900460ff16600281111561368d5761368c614bc8565b5b600281111561369f5761369e614bc8565b5b8152602001600482015481525050905060008160400151116136ed576040517f665c1c5700000000000000000000000000000000000000000000000000000000815260040160405180910390fd5b600073ffffffffffffffffffffffffffffffffffffffff16816000015173ffffffffffffffffffffffffffffffffffffffff1603613757576040517f665c1c5700000000000000000000000000000000000000000000000000000000815260040160405180910390fd5b818160a001511015613795576040517f524f409b00000000000000000000000000000000000000000000000000000000815260040160405180910390fd5b505050565b600073ffffffffffffffffffffffffffffffffffffffff168273ffffffffffffffffffffffffffffffffffffffff160361380b57816040517f5b08ba180000000000000000000000000000000000000000000000000000000081526004016138029190614842565b60405180910390fd5b80600560008573ffffffffffffffffffffffffffffffffffffffff1673ffffffffffffffffffffffffffffffffffffffff16815260200190815260200160002060008473ffffffffffffffffffffffffffffffffffffffff1673ffffffffffffffffffffffffffffffffffffffff16815260200190815260200160002060006101000a81548160ff0219169083151502179055508173ffffffffffffffffffffffffffffffffffffffff168373ffffffffffffffffffffffffffffffffffffffff167f17307eab39ab6107e8899845ad3d59bd9653f200f220920489ca2b5937696c31836040516138fc91906146d1565b60405180910390a3505050565b60008373ffffffffffffffffffffffffffffffffffffffff163b1115613aba578273ffffffffffffffffffffffffffffffffffffffff1663150b7a0261394d6131f2565b8685856040518563ffffffff1660e01b815260040161396f949392919061570a565b6020604051808303816000875af19250505080156139ab57506040513d601f19601f820116820180604052508101906139a8919061576b565b60015b613a2f573d80600081146139db576040519150601f19603f3d011682016040523d82523d6000602084013e6139e0565b606091505b506000815103613a2757836040517f64a0ae92000000000000000000000000000000000000000000000000000000008152600401613a1e9190614842565b60405180910390fd5b805181602001fd5b63150b7a0260e01b7bffffffffffffffffffffffffffffffffffffffffffffffffffffffff1916817bffffffffffffffffffffffffffffffffffffffffffffffffffffffff191614613ab857836040517f64a0ae92000000000000000000000000000000000000000000000000000000008152600401613aaf9190614842565b60405180910390fd5b505b50505050565b6060613acb8261312d565b506000600860008481526020019081526020016000208054613aec90615143565b80601f0160208091040260200160405190810160405280929190818152602001828054613b1890615143565b8015613b655780601f10613b3a57610100808354040283529160200191613b65565b820191906000526020600020905b815481529060010190602001808311613b4857829003601f168201915b505050505090506000613b766140df565b90506000815103613b8b578192505050613bce565b600082511115613bc0578082604051602001613ba89291906157d4565b60405160208183030381529060405292505050613bce565b613bc9846140f6565b925050505b919050565b613bed82826040518060200160405280600081525061415f565b5050565b80600860008481526020019081526020016000209081613c119190615384565b507ff8e1a15aba9398e019f0b49df1a4fde98ee17ae345cb5f6b5e2c27f5033e8ce782604051613c419190614cef565b60405180910390a15050565b8073ffffffffffffffffffffffffffffffffffffffff163073ffffffffffffffffffffffffffffffffffffffff16636352211e846040518263ffffffff1660e01b8152600401613c9d9190614cef565b602060405180830381865afa158015613cba573d6000803e3d6000fd5b505050506040513d601f19601f82011682018060405250810190613cde919061580d565b73ffffffffffffffffffffffffffffffffffffffff1614613d2b576040517f3aa1064300000000000000000000000000000000000000000000000000000000815260040160405180910390fd5b5050565b600042905090565b60007f80ac58cd000000000000000000000000000000000000000000000000000000007bffffffffffffffffffffffffffffffffffffffffffffffffffffffff1916827bffffffffffffffffffffffffffffffffffffffffffffffffffffffff19161480613e0257507f5b5e139f000000000000000000000000000000000000000000000000000000007bffffffffffffffffffffffffffffffffffffffffffffffffffffffff1916827bffffffffffffffffffffffffffffffffffffffffffffffffffffffff1916145b80613e125750613e118261417b565b5b9050919050565b60006002600083815260200190815260200160002060009054906101000a900473ffffffffffffffffffffffffffffffffffffffff169050919050565b8080613e8f5750600073ffffffffffffffffffffffffffffffffffffffff168273ffffffffffffffffffffffffffffffffffffffff1614155b15613fc3576000613e9f8461312d565b9050600073ffffffffffffffffffffffffffffffffffffffff168373ffffffffffffffffffffffffffffffffffffffff1614158015613f0a57508273ffffffffffffffffffffffffffffffffffffffff168173ffffffffffffffffffffffffffffffffffffffff1614155b8015613f1d5750613f1b8184612572565b155b15613f5f57826040517fa9fbf51f000000000000000000000000000000000000000000000000000000008152600401613f569190614842565b60405180910390fd5b8115613fc157838573ffffffffffffffffffffffffffffffffffffffff168273ffffffffffffffffffffffffffffffffffffffff167f8c5be1e5ebec7d5bd14f71427d1e84f3dd0314c0f7b2291e5b200ac8c7c3b92560405160405180910390a45b505b836004600085815260200190815260200160002060006101000a81548173ffffffffffffffffffffffffffffffffffffffff021916908373ffffffffffffffffffffffffffffffffffffffff16021790555050505050565b6140268383836141e5565b6140da57600073ffffffffffffffffffffffffffffffffffffffff168373ffffffffffffffffffffffffffffffffffffffff160361409b57806040517f7e2732890000000000000000000000000000000000000000000000000000000081526004016140929190614cef565b60405180910390fd5b81816040517f177e802f0000000000000000000000000000000000000000000000000000000081526004016140d192919061583a565b60405180910390fd5b505050565b606060405180602001604052806000815250905090565b60606141018261312d565b50600061410c6140df565b9050600081511161412c5760405180602001604052806000815250614157565b80614136846142a6565b6040516020016141479291906157d4565b6040516020818303038152906040525b915050919050565b6141698383614374565b6141766000848484613909565b505050565b60007f01ffc9a7000000000000000000000000000000000000000000000000000000007bffffffffffffffffffffffffffffffffffffffffffffffffffffffff1916827bffffffffffffffffffffffffffffffffffffffffffffffffffffffff1916149050919050565b60008073ffffffffffffffffffffffffffffffffffffffff168373ffffffffffffffffffffffffffffffffffffffff161415801561429d57508273ffffffffffffffffffffffffffffffffffffffff168473ffffffffffffffffffffffffffffffffffffffff16148061425e575061425d8484612572565b5b8061429c57508273ffffffffffffffffffffffffffffffffffffffff16614284836131b5565b73ffffffffffffffffffffffffffffffffffffffff16145b5b90509392505050565b6060600060016142b58461446d565b01905060008167ffffffffffffffff8111156142d4576142d3614926565b5b6040519080825280601f01601f1916602001820160405280156143065781602001600182028036833780820191505090505b509050600082602001820190505b600115614369578080600190039150507f3031323334353637383961626364656600000000000000000000000000000000600a86061a8153600a858161435d5761435c615863565b5b04945060008503614314575b819350505050919050565b600073ffffffffffffffffffffffffffffffffffffffff168273ffffffffffffffffffffffffffffffffffffffff16036143e65760006040517f64a0ae920000000000000000000000000000000000000000000000000000000081526004016143dd9190614842565b60405180910390fd5b60006143f48383600061320c565b9050600073ffffffffffffffffffffffffffffffffffffffff168173ffffffffffffffffffffffffffffffffffffffff16146144685760006040517f73c6ac6e00000000000000000000000000000000000000000000000000000000815260040161445f9190614842565b60405180910390fd5b505050565b600080600090507a184f03e93ff9f4daa797ed6e38ed64bf6a1f01000000000000000083106144cb577a184f03e93ff9f4daa797ed6e38ed64bf6a1f01000000000000000083816144c1576144c0615863565b5b0492506040810190505b6d04ee2d6d415b85acef81000000008310614508576d04ee2d6d415b85acef810000000083816144fe576144fd615863565b5b0492506020810190505b662386f26fc10000831061453757662386f26fc10000838161452d5761452c615863565b5b0492506010810190505b6305f5e1008310614560576305f5e100838161455657614555615863565b5b0492506008810190505b612710831061458557612710838161457b5761457a615863565b5b0492506004810190505b606483106145a8576064838161459e5761459d615863565b5b0492506002810190505b600a83106145b7576001810190505b80915050919050565b5080546145cc90615143565b6000825580601f106145de57506145fd565b601f0160209004906000526020600020908101906145fc9190614600565b5b50565b5b80821115614619576000816000905550600101614601565b5090565b6000604051905090565b600080fd5b600080fd5b60007fffffffff0000000000000000000000000000000000000000000000000000000082169050919050565b61466681614631565b811461467157600080fd5b50565b6000813590506146838161465d565b92915050565b60006020828403121561469f5761469e614627565b5b60006146ad84828501614674565b91505092915050565b60008115159050919050565b6146cb816146b6565b82525050565b60006020820190506146e660008301846146c2565b92915050565b600081519050919050565b600082825260208201905092915050565b60005b8381101561472657808201518184015260208101905061470b565b60008484015250505050565b6000601f19601f8301169050919050565b600061474e826146ec565b61475881856146f7565b9350614768818560208601614708565b61477181614732565b840191505092915050565b600060208201905081810360008301526147968184614743565b905092915050565b6000819050919050565b6147b18161479e565b81146147bc57600080fd5b50565b6000813590506147ce816147a8565b92915050565b6000602082840312156147ea576147e9614627565b5b60006147f8848285016147bf565b91505092915050565b600073ffffffffffffffffffffffffffffffffffffffff82169050919050565b600061482c82614801565b9050919050565b61483c81614821565b82525050565b60006020820190506148576000830184614833565b92915050565b61486681614821565b811461487157600080fd5b50565b6000813590506148838161485d565b92915050565b600080604083850312156148a05761489f614627565b5b60006148ae85828601614874565b92505060206148bf858286016147bf565b9150509250929050565b6000806000606084860312156148e2576148e1614627565b5b60006148f086828701614874565b935050602061490186828701614874565b9250506040614912868287016147bf565b9150509250925092565b600080fd5b600080fd5b7f4e487b7100000000000000000000000000000000000000000000000000000000600052604160045260246000fd5b61495e82614732565b810181811067ffffffffffffffff8211171561497d5761497c614926565b5b80604052505050565b600061499061461d565b905061499c8282614955565b919050565b600067ffffffffffffffff8211156149bc576149bb614926565b5b6149c582614732565b9050602081019050919050565b82818337600083830152505050565b60006149f46149ef846149a1565b614986565b905082815260208101848484011115614a1057614a0f614921565b5b614a1b8482856149d2565b509392505050565b600082601f830112614a3857614a3761491c565b5b8135614a488482602086016149e1565b91505092915050565b60048110614a5e57600080fd5b50565b600081359050614a7081614a51565b92915050565b60008060408385031215614a8d57614a8c614627565b5b600083013567ffffffffffffffff811115614aab57614aaa61462c565b5b614ab785828601614a23565b9250506020614ac885828601614a61565b9150509250929050565b600060208284031215614ae857614ae7614627565b5b6000614af684828501614874565b91505092915050565b6000819050919050565b6000614b24614b1f614b1a84614801565b614aff565b614801565b9050919050565b6000614b3682614b09565b9050919050565b6000614b4882614b2b565b9050919050565b614b5881614b3d565b82525050565b6000602082019050614b736000830184614b4f565b92915050565b60008060408385031215614b9057614b8f614627565b5b6000614b9e858286016147bf565b9250506020614baf85828601614874565b9150509250929050565b614bc28161479e565b82525050565b7f4e487b7100000000000000000000000000000000000000000000000000000000600052602160045260246000fd5b60038110614c0857614c07614bc8565b5b50565b6000819050614c1982614bf7565b919050565b6000614c2982614c0b565b9050919050565b614c3981614c1e565b82525050565b60038110614c5057614c4f614bc8565b5b50565b6000819050614c6182614c3f565b919050565b6000614c7182614c53565b9050919050565b614c8181614c66565b82525050565b600060c082019050614c9c6000830189614bb9565b8181036020830152614cae8188614743565b9050614cbd6040830187614bb9565b614cca6060830186614c30565b614cd76080830185614c78565b614ce460a0830184614bb9565b979650505050505050565b6000602082019050614d046000830184614bb9565b92915050565b600080600060608486031215614d2357614d22614627565b5b6000614d31868287016147bf565b9350506020614d42868287016147bf565b925050604084013567ffffffffffffffff811115614d6357614d6261462c565b5b614d6f86828701614a23565b9150509250925092565b614d82816146b6565b8114614d8d57600080fd5b50565b600081359050614d9f81614d79565b92915050565b60008060408385031215614dbc57614dbb614627565b5b6000614dca85828601614874565b9250506020614ddb85828601614d90565b9150509250929050565b60048110614df657614df5614bc8565b5b50565b6000819050614e0782614de5565b919050565b6000614e1782614df9565b9050919050565b614e2781614e0c565b82525050565b60006060820190508181036000830152614e478186614743565b9050614e566020830185614e1e565b614e6360408301846146c2565b949350505050565b600067ffffffffffffffff821115614e8657614e85614926565b5b614e8f82614732565b9050602081019050919050565b6000614eaf614eaa84614e6b565b614986565b905082815260208101848484011115614ecb57614eca614921565b5b614ed68482856149d2565b509392505050565b600082601f830112614ef357614ef261491c565b5b8135614f03848260208601614e9c565b91505092915050565b60008060008060808587031215614f2657614f25614627565b5b6000614f3487828801614874565b9450506020614f4587828801614874565b9350506040614f56878288016147bf565b925050606085013567ffffffffffffffff811115614f7757614f7661462c565b5b614f8387828801614ede565b91505092959194509250565b600060208284031215614fa557614fa4614627565b5b600082013567ffffffffffffffff811115614fc357614fc261462c565b5b614fcf84828501614a23565b91505092915050565b60038110614fe957614fe8614bc8565b5b50565b6000819050614ffa82614fd8565b919050565b600061500a82614fec565b9050919050565b61501a81614fff565b82525050565b600060c0820190506150356000830189614833565b6150426020830188614bb9565b61504f6040830187614bb9565b61505c60608301866146c2565b6150696080830185615011565b61507660a0830184614bb9565b979650505050505050565b6000806040838503121561509857615097614627565b5b60006150a685828601614874565b92505060206150b785828601614874565b9150509250929050565b6000806000606084860312156150da576150d9614627565b5b60006150e8868287016147bf565b93505060206150f9868287016147bf565b925050604061510a868287016147bf565b9150509250925092565b7f4e487b7100000000000000000000000000000000000000000000000000000000600052602260045260246000fd5b6000600282049050600182168061515b57607f821691505b60208210810361516e5761516d615114565b5b50919050565b60006060820190506151896000830186614833565b6151966020830185614bb9565b6151a36040830184614833565b949350505050565b60006060820190506151c06000830186614833565b6151cd6020830185614833565b6151da6040830184614bb9565b949350505050565b60008190508160005260206000209050919050565b60006020601f8301049050919050565b600082821b905092915050565b6000600883026152447fffffffffffffffffffffffffffffffffffffffffffffffffffffffffffffffff82615207565b61524e8683615207565b95508019841693508086168417925050509392505050565b600061528161527c6152778461479e565b614aff565b61479e565b9050919050565b6000819050919050565b61529b83615266565b6152af6152a782615288565b848454615214565b825550505050565b600090565b6152c46152b7565b6152cf818484615292565b505050565b5b818110156152f3576152e86000826152bc565b6001810190506152d5565b5050565b601f82111561533857615309816151e2565b615312846151f7565b81016020851015615321578190505b61533561532d856151f7565b8301826152d4565b50505b505050565b600082821c905092915050565b600061535b6000198460080261533d565b1980831691505092915050565b6000615374838361534a565b9150826002028217905092915050565b61538d826146ec565b67ffffffffffffffff8111156153a6576153a5614926565b5b6153b08254615143565b6153bb8282856152f7565b600060209050601f8311600181146153ee57600084156153dc578287015190505b6153e68582615368565b86555061544e565b601f1984166153fc866151e2565b60005b82811015615424578489015182556001820191506020850194506020810190506153ff565b86831015615441578489015161543d601f89168261534a565b8355505b6001600288020188555050505b505050505050565b600081905092915050565b50565b6000615471600083615456565b915061547c82615461565b600082019050919050565b600061549282615464565b9150819050919050565b7f4e487b7100000000000000000000000000000000000000000000000000000000600052601160045260246000fd5b60006154d68261479e565b91506154e18361479e565b92508282026154ef8161479e565b915082820484148315176155065761550561549c565b5b5092915050565b60006155188261479e565b91506155238361479e565b925082820390508181111561553b5761553a61549c565b5b92915050565b60006060820190506155566000830186614bb9565b6155636020830185614bb9565b6155706040830184614c78565b949350505050565b60006155838261479e565b915061558e8361479e565b92508282019050808211156155a6576155a561549c565b5b92915050565b60006080820190506155c16000830187614833565b6155ce6020830186614bb9565b6155db6040830185614833565b6155e86060830184614bb9565b95945050505050565b60006155fc8261479e565b91507fffffffffffffffffffffffffffffffffffffffffffffffffffffffffffffffff820361562e5761562d61549c565b5b600182019050919050565b600060808201905061564e6000830187614bb9565b61565b6020830186614bb9565b6156686040830185615011565b6156756060830184614bb9565b95945050505050565b60006060820190506156936000830186614bb9565b6156a06020830185614bb9565b6156ad6040830184614bb9565b949350505050565b600081519050919050565b600082825260208201905092915050565b60006156dc826156b5565b6156e681856156c0565b93506156f6818560208601614708565b6156ff81614732565b840191505092915050565b600060808201905061571f6000830187614833565b61572c6020830186614833565b6157396040830185614bb9565b818103606083015261574b81846156d1565b905095945050505050565b6000815190506157658161465d565b92915050565b60006020828403121561578157615780614627565b5b600061578f84828501615756565b91505092915050565b600081905092915050565b60006157ae826146ec565b6157b88185615798565b93506157c8818560208601614708565b80840191505092915050565b60006157e082856157a3565b91506157ec82846157a3565b91508190509392505050565b6000815190506158078161485d565b92915050565b60006020828403121561582357615822614627565b5b6000615831848285016157f8565b91505092915050565b600060408201905061584f6000830185614833565b61585c6020830184614bb9565b9392505050565b7f4e487b7100000000000000000000000000000000000000000000000000000000600052601260045260246000fdfea264697066735822122076770db86435ae74459ae18bdcf70afe3294257130aa811e6bfc529c357d973564736f6c634300081b0033",
  "linkReferences": {},
  "deployedLinkReferences": {}
}