{
  "_format": "hh-sol-artifact-1",
  "contractName": "Escrow",
  "sourceName": "contracts/Escrow.sol",
  "abi": [
    {
      "inputs": [
        {
          "internalType": "uint256",
          "name": "_feePercentage",
          "type": "uint256"
        },
        {
          "internalType": "address",
          "name": "_feeRecipient",
          "type": "address"
        }
      ],
      "stateMutability": "nonpayable",
      "type": "constructor"
    },
    {
      "inputs": [
        {
          "internalType": "address",
          "name": "owner",
          "type": "address"
        }
      ],
      "name": "OwnableInvalidOwner",
      "type": "error"
    },
    {
      "inputs": [
        {
          "internalType": "address",
          "name": "account",
          "type": "address"
        }
      ],
      "name": "OwnableUnauthorizedAccount",
      "type": "error"
    },
    {
      "inputs": [],
      "name": "ReentrancyGuardReentrantCall",
      "type": "error"
    },
    {
      "anonymous": false,
      "inputs": [
        {
          "indexed": true,
          "internalType": "address",
          "name": "nftAddress",
          "type": "address"
        },
        {
          "indexed": true,
          "internalType": "uint256",
          "name": "tokenId",
          "type": "uint256"
        },
        {
          "indexed": false,
          "internalType": "address",
          "name": "seller",
          "type": "address"
        },
        {
          "indexed": true,
          "internalType": "address",
          "name": "winner",
          "type": "address"
        },
        {
          "indexed": false,
          "internalType": "uint256",
          "name": "winningBid",
          "type": "uint256"
        }
      ],
      "name": "DepositForAuction",
      "type": "event"
    },
    {
      "anonymous": false,
      "inputs": [
        {
          "indexed": true,
          "internalType": "address",
          "name": "buyer",
          "type": "address"
        },
        {
          "indexed": true,
          "internalType": "address",
          "name": "seller",
          "type": "address"
        },
        {
          "indexed": false,
          "internalType": "uint256",
          "name": "amount",
          "type": "uint256"
        }
      ],
      "name": "DepositForOrder",
      "type": "event"
    },
    {
      "anonymous": false,
      "inputs": [
        {
          "indexed": false,
          "internalType": "uint256",
          "name": "newFeePercentage",
          "type": "uint256"
        }
      ],
      "name": "FeePercentageUpdated",
      "type": "event"
    },
    {
      "anonymous": false,
      "inputs": [
        {
          "indexed": true,
          "internalType": "address",
          "name": "newFeeRecipient",
          "type": "address"
        }
      ],
      "name": "FeeRecipientUpdated",
      "type": "event"
    },
    {
      "anonymous": false,
      "inputs": [
        {
          "indexed": false,
          "internalType": "address",
          "name": "operator",
          "type": "address"
        },
        {
          "indexed": false,
          "internalType": "address",
          "name": "from",
          "type": "address"
        },
        {
          "indexed": false,
          "internalType": "uint256",
          "name": "tokenId",
          "type": "uint256"
        },
        {
          "indexed": false,
          "internalType": "bytes",
          "name": "data",
          "type": "bytes"
        }
      ],
      "name": "NFTReceived",
      "type": "event"
    },
    {
      "anonymous": false,
      "inputs": [
        {
          "indexed": true,
          "internalType": "address",
          "name": "previousOwner",
          "type": "address"
        },
        {
          "indexed": true,
          "internalType": "address",
          "name": "newOwner",
          "type": "address"
        }
      ],
      "name": "OwnershipTransferred",
      "type": "event"
    },
    {
      "anonymous": false,
      "inputs": [
        {
          "indexed": true,
          "internalType": "address",
          "name": "nftAddress",
          "type": "address"
        },
        {
          "indexed": true,
          "internalType": "uint256",
          "name": "tokenId",
          "type": "uint256"
        },
        {
          "indexed": false,
          "internalType": "address",
          "name": "seller",
          "type": "address"
        }
      ],
      "name": "ReleaseForAuction",
      "type": "event"
    },
    {
      "anonymous": false,
      "inputs": [
        {
          "indexed": true,
          "internalType": "address",
          "name": "buyer",
          "type": "address"
        },
        {
          "indexed": true,
          "internalType": "address",
          "name": "seller",
          "type": "address"
        },
        {
          "indexed": false,
          "internalType": "uint256",
          "name": "amount",
          "type": "uint256"
        }
      ],
      "name": "ReleaseForOrder",
      "type": "event"
    },
    {
      "inputs": [],
      "name": "auctionContract",
      "outputs": [
        {
          "internalType": "address",
          "name": "",
          "type": "address"
        }
      ],
      "stateMutability": "view",
      "type": "function"
    },
    {
      "inputs": [
        {
          "internalType": "address",
          "name": "",
          "type": "address"
        },
        {
          "internalType": "uint256",
          "name": "",
          "type": "uint256"
        }
      ],
      "name": "auctionEscrow",
      "outputs": [
        {
          "internalType": "address payable",
          "name": "seller",
          "type": "address"
        },
        {
          "internalType": "address",
          "name": "winner",
          "type": "address"
        },
        {
          "internalType": "uint256",
          "name": "winningbid",
          "type": "uint256"
        },
        {
          "internalType": "bool",
          "name": "isReceived",
          "type": "bool"
        }
      ],
      "stateMutability": "view",
      "type": "function"
    },
    {
      "inputs": [
        {
          "internalType": "address",
          "name": "_nftAddress",
          "type": "address"
        },
        {
          "internalType": "uint256",
          "name": "_tokenId",
          "type": "uint256"
        },
        {
          "internalType": "address payable",
          "name": "_seller",
          "type": "address"
        },
        {
          "internalType": "address",
          "name": "_winner",
          "type": "address"
        },
        {
          "internalType": "uint256",
          "name": "_winningbid",
          "type": "uint256"
        }
      ],
      "name": "depositForAuction",
      "outputs": [],
      "stateMutability": "payable",
      "type": "function"
    },
    {
      "inputs": [
        {
          "internalType": "address",
          "name": "seller",
          "type": "address"
        },
        {
          "internalType": "uint256",
          "name": "amount",
          "type": "uint256"
        },
        {
          "internalType": "address",
          "name": "buyer",
          "type": "address"
        },
        {
          "internalType": "uint256",
          "name": "orderId",
          "type": "uint256"
        }
      ],
      "name": "depositForOrder",
      "outputs": [],
      "stateMutability": "payable",
      "type": "function"
    },
    {
      "inputs": [],
      "name": "feePercentage",
      "outputs": [
        {
          "internalType": "uint256",
          "name": "",
          "type": "uint256"
        }
      ],
      "stateMutability": "view",
      "type": "function"
    },
    {
      "inputs": [],
      "name": "feeRecipient",
      "outputs": [
        {
          "internalType": "address",
          "name": "",
          "type": "address"
        }
      ],
      "stateMutability": "view",
      "type": "function"
    },
    {
      "inputs": [],
      "name": "marketPlaceContract",
      "outputs": [
        {
          "internalType": "address",
          "name": "",
          "type": "address"
        }
      ],
      "stateMutability": "view",
      "type": "function"
    },
    {
      "inputs": [
        {
          "internalType": "address",
          "name": "operator",
          "type": "address"
        },
        {
          "internalType": "address",
          "name": "from",
          "type": "address"
        },
        {
          "internalType": "uint256",
          "name": "tokenId",
          "type": "uint256"
        },
        {
          "internalType": "bytes",
          "name": "data",
          "type": "bytes"
        }
      ],
      "name": "onERC721Received",
      "outputs": [
        {
          "internalType": "bytes4",
          "name": "",
          "type": "bytes4"
        }
      ],
      "stateMutability": "nonpayable",
      "type": "function"
    },
    {
      "inputs": [
        {
          "internalType": "address",
          "name": "",
          "type": "address"
        },
        {
          "internalType": "address",
          "name": "",
          "type": "address"
        },
        {
          "internalType": "uint256",
          "name": "",
          "type": "uint256"
        }
      ],
      "name": "orderEscrow",
      "outputs": [
        {
          "internalType": "address payable",
          "name": "seller",
          "type": "address"
        },
        {
          "internalType": "address",
          "name": "buyer",
          "type": "address"
        },
        {
          "internalType": "uint256",
          "name": "amount",
          "type": "uint256"
        },
        {
          "internalType": "bool",
          "name": "isReceived",
          "type": "bool"
        }
      ],
      "stateMutability": "view",
      "type": "function"
    },
    {
      "inputs": [],
      "name": "owner",
      "outputs": [
        {
          "internalType": "address",
          "name": "",
          "type": "address"
        }
      ],
      "stateMutability": "view",
      "type": "function"
    },
    {
      "inputs": [
        {
          "internalType": "address",
          "name": "_nftAddress",
          "type": "address"
        },
        {
          "internalType": "uint256",
          "name": "_tokenId",
          "type": "uint256"
        }
      ],
      "name": "releaseForAuction",
      "outputs": [],
      "stateMutability": "nonpayable",
      "type": "function"
    },
    {
      "inputs": [
        {
          "internalType": "address",
          "name": "buyer",
          "type": "address"
        },
        {
          "internalType": "address",
          "name": "seller",
          "type": "address"
        },
        {
          "internalType": "uint256",
          "name": "orderId",
          "type": "uint256"
        }
      ],
      "name": "releaseForOrder",
      "outputs": [],
      "stateMutability": "nonpayable",
      "type": "function"
    },
    {
      "inputs": [],
      "name": "renounceOwnership",
      "outputs": [],
      "stateMutability": "nonpayable",
      "type": "function"
    },
    {
      "inputs": [
        {
          "internalType": "address",
          "name": "newOwner",
          "type": "address"
        }
      ],
      "name": "transferOwnership",
      "outputs": [],
      "stateMutability": "nonpayable",
      "type": "function"
    },
    {
      "inputs": [
        {
          "internalType": "address",
          "name": "_auctionContract",
          "type": "address"
        }
      ],
      "name": "updateAuctionContract",
      "outputs": [],
      "stateMutability": "nonpayable",
      "type": "function"
    },
    {
      "inputs": [
        {
          "internalType": "uint256",
          "name": "_newFeePercentage",
          "type": "uint256"
        }
      ],
      "name": "updateFeePercentage",
      "outputs": [],
      "stateMutability": "nonpayable",
      "type": "function"
    },
    {
      "inputs": [
        {
          "internalType": "address",
          "name": "_newFeeRecipient",
          "type": "address"
        }
      ],
      "name": "updateFeeRecipient",
      "outputs": [],
      "stateMutability": "nonpayable",
      "type": "function"
    },
    {
      "inputs": [
        {
          "internalType": "address",
          "name": "_marketPlaceContract",
          "type": "address"
        }
      ],
      "name": "updateMarketPlaceContract",
      "outputs": [],
      "stateMutability": "nonpayable",
      "type": "function"
    }
  ],
  "bytecode": "0x608060405234801561001057600080fd5b50604051612a54380380612a548339818101604052810190610032919061026b565b336001600081905550600073ffffffffffffffffffffffffffffffffffffffff168173ffffffffffffffffffffffffffffffffffffffff16036100ad5760006040517f1e4fbdf70000000000000000000000000000000000000000000000000000000081526004016100a491906102ba565b60405180910390fd5b6100bc8161010c60201b60201c565b5080600260006101000a81548173ffffffffffffffffffffffffffffffffffffffff021916908373ffffffffffffffffffffffffffffffffffffffff1602179055508160038190555050506102d5565b6000600160009054906101000a900473ffffffffffffffffffffffffffffffffffffffff16905081600160006101000a81548173ffffffffffffffffffffffffffffffffffffffff021916908373ffffffffffffffffffffffffffffffffffffffff1602179055508173ffffffffffffffffffffffffffffffffffffffff168173ffffffffffffffffffffffffffffffffffffffff167f8be0079c531659141344cd1fd0a4f28419497f9722a3daafe3b4186f6b6457e060405160405180910390a35050565b600080fd5b6000819050919050565b6101ea816101d7565b81146101f557600080fd5b50565b600081519050610207816101e1565b92915050565b600073ffffffffffffffffffffffffffffffffffffffff82169050919050565b60006102388261020d565b9050919050565b6102488161022d565b811461025357600080fd5b50565b6000815190506102658161023f565b92915050565b60008060408385031215610282576102816101d2565b5b6000610290858286016101f8565b92505060206102a185828601610256565b9150509250929050565b6102b48161022d565b82525050565b60006020820190506102cf60008301846102ab565b92915050565b612770806102e46000396000f3fe6080604052600436106101095760003560e01c80635e75902711610095578063959cca9711610064578063959cca9714610341578063a001ecdd1461036a578063a89cdd1e14610395578063f160d369146103be578063f2fde38b146103e757610109565b80635e759027146102965780636cad3fb0146102d6578063715018a6146102ff5780638da5cb5b1461031657610109565b806331810b8d116100dc57806331810b8d146101c85780633dc37e1a146101e45780633fafc66f1461020f578063469048401461022b578063514157331461025657610109565b80630ab8afac1461010e5780630bb168bb14610139578063121669f114610162578063150b7a021461018b575b600080fd5b34801561011a57600080fd5b50610123610410565b6040516101309190611998565b60405180910390f35b34801561014557600080fd5b50610160600480360381019061015b91906119e9565b610436565b005b34801561016e57600080fd5b50610189600480360381019061018491906119e9565b610482565b005b34801561019757600080fd5b506101b260048036038101906101ad9190611ab1565b6104ce565b6040516101bf9190611b74565b60405180910390f35b6101e260048036038101906101dd9190611bcd565b610522565b005b3480156101f057600080fd5b506101f96108a5565b6040516102069190611998565b60405180910390f35b61022960048036038101906102249190611c48565b6108cb565b005b34801561023757600080fd5b50610240610ba0565b60405161024d9190611998565b60405180910390f35b34801561026257600080fd5b5061027d60048036038101906102789190611caf565b610bc6565b60405161028d9493929190611d28565b60405180910390f35b3480156102a257600080fd5b506102bd60048036038101906102b89190611d6d565b610c50565b6040516102cd9493929190611d28565b60405180910390f35b3480156102e257600080fd5b506102fd60048036038101906102f89190611dc0565b610ce7565b005b34801561030b57600080fd5b50610314610d74565b005b34801561032257600080fd5b5061032b610d88565b6040516103389190611998565b60405180910390f35b34801561034d57600080fd5b5061036860048036038101906103639190611d6d565b610db2565b005b34801561037657600080fd5b5061037f6111d9565b60405161038c9190611ded565b60405180910390f35b3480156103a157600080fd5b506103bc60048036038101906103b79190611caf565b6111df565b005b3480156103ca57600080fd5b506103e560048036038101906103e091906119e9565b61162e565b005b3480156103f357600080fd5b5061040e600480360381019061040991906119e9565b61172c565b005b600460009054906101000a900473ffffffffffffffffffffffffffffffffffffffff1681565b61043e6117b2565b80600560006101000a81548173ffffffffffffffffffffffffffffffffffffffff021916908373ffffffffffffffffffffffffffffffffffffffff16021790555050565b61048a6117b2565b80600460006101000a81548173ffffffffffffffffffffffffffffffffffffffff021916908373ffffffffffffffffffffffffffffffffffffffff16021790555050565b60007f1d823cdc8f0514a95b53538df2d2f3deaf98d1c534c6e750daa593173c27f8f08686868686604051610507959493929190611e66565b60405180910390a163150b7a0260e01b905095945050505050565b3073ffffffffffffffffffffffffffffffffffffffff168573ffffffffffffffffffffffffffffffffffffffff16636352211e866040518263ffffffff1660e01b81526004016105729190611ded565b602060405180830381865afa15801561058f573d6000803e3d6000fd5b505050506040513d601f19601f820116820180604052508101906105b39190611ec9565b73ffffffffffffffffffffffffffffffffffffffff1614610609576040517f08c379a000000000000000000000000000000000000000000000000000000000815260040161060090611f53565b60405180910390fd5b80341461064b576040517f08c379a000000000000000000000000000000000000000000000000000000000815260040161064290611fbf565b60405180910390fd5b600460009054906101000a900473ffffffffffffffffffffffffffffffffffffffff1673ffffffffffffffffffffffffffffffffffffffff163373ffffffffffffffffffffffffffffffffffffffff16146106db576040517f08c379a00000000000000000000000000000000000000000000000000000000081526004016106d290612051565b60405180910390fd5b60405180608001604052808473ffffffffffffffffffffffffffffffffffffffff1681526020018373ffffffffffffffffffffffffffffffffffffffff16815260200182815260200160001515815250600760008773ffffffffffffffffffffffffffffffffffffffff1673ffffffffffffffffffffffffffffffffffffffff168152602001908152602001600020600086815260200190815260200160002060008201518160000160006101000a81548173ffffffffffffffffffffffffffffffffffffffff021916908373ffffffffffffffffffffffffffffffffffffffff16021790555060208201518160010160006101000a81548173ffffffffffffffffffffffffffffffffffffffff021916908373ffffffffffffffffffffffffffffffffffffffff1602179055506040820151816002015560608201518160030160006101000a81548160ff0219169083151502179055509050508173ffffffffffffffffffffffffffffffffffffffff16848673ffffffffffffffffffffffffffffffffffffffff167f45c039bf035a3eaff7614ce2f7b99f3290c77d90406a4b49b7a81db4e0e4812986856040516108969291906120d0565b60405180910390a45050505050565b600560009054906101000a900473ffffffffffffffffffffffffffffffffffffffff1681565b82341461090d576040517f08c379a000000000000000000000000000000000000000000000000000000000815260040161090490611fbf565b60405180910390fd5b600560009054906101000a900473ffffffffffffffffffffffffffffffffffffffff1673ffffffffffffffffffffffffffffffffffffffff163373ffffffffffffffffffffffffffffffffffffffff161461099d576040517f08c379a000000000000000000000000000000000000000000000000000000000815260040161099490612145565b60405180910390fd5b60405180608001604052808573ffffffffffffffffffffffffffffffffffffffff1681526020018373ffffffffffffffffffffffffffffffffffffffff16815260200184815260200160001515815250600660008473ffffffffffffffffffffffffffffffffffffffff1673ffffffffffffffffffffffffffffffffffffffff16815260200190815260200160002060008673ffffffffffffffffffffffffffffffffffffffff1673ffffffffffffffffffffffffffffffffffffffff168152602001908152602001600020600083815260200190815260200160002060008201518160000160006101000a81548173ffffffffffffffffffffffffffffffffffffffff021916908373ffffffffffffffffffffffffffffffffffffffff16021790555060208201518160010160006101000a81548173ffffffffffffffffffffffffffffffffffffffff021916908373ffffffffffffffffffffffffffffffffffffffff1602179055506040820151816002015560608201518160030160006101000a81548160ff0219169083151502179055509050508373ffffffffffffffffffffffffffffffffffffffff168273ffffffffffffffffffffffffffffffffffffffff167f523625acb9608794c791259f72e3d0a644002ecc011d9db9bbab303ddf04f83c85604051610b929190611ded565b60405180910390a350505050565b600260009054906101000a900473ffffffffffffffffffffffffffffffffffffffff1681565b6007602052816000526040600020602052806000526040600020600091509150508060000160009054906101000a900473ffffffffffffffffffffffffffffffffffffffff16908060010160009054906101000a900473ffffffffffffffffffffffffffffffffffffffff16908060020154908060030160009054906101000a900460ff16905084565b600660205282600052604060002060205281600052604060002060205280600052604060002060009250925050508060000160009054906101000a900473ffffffffffffffffffffffffffffffffffffffff16908060010160009054906101000a900473ffffffffffffffffffffffffffffffffffffffff16908060020154908060030160009054906101000a900460ff16905084565b610cef6117b2565b6064811115610d33576040517f08c379a0000000000000000000000000000000000000000000000000000000008152600401610d2a906121b1565b60405180910390fd5b806003819055507f74516f05eb4bd2461d57aa1e935ee553f86a3e02bfed7759f2f772915de3d9be81604051610d699190611ded565b60405180910390a150565b610d7c6117b2565b610d866000611839565b565b6000600160009054906101000a900473ffffffffffffffffffffffffffffffffffffffff16905090565b6000600660008573ffffffffffffffffffffffffffffffffffffffff1673ffffffffffffffffffffffffffffffffffffffff16815260200190815260200160002060008473ffffffffffffffffffffffffffffffffffffffff1673ffffffffffffffffffffffffffffffffffffffff168152602001908152602001600020600083815260200190815260200160002090508060010160009054906101000a900473ffffffffffffffffffffffffffffffffffffffff1673ffffffffffffffffffffffffffffffffffffffff163373ffffffffffffffffffffffffffffffffffffffff1614610ed5576040517f08c379a0000000000000000000000000000000000000000000000000000000008152600401610ecc9061221d565b60405180910390fd5b6000816002015411610f1c576040517f08c379a0000000000000000000000000000000000000000000000000000000008152600401610f1390612289565b60405180910390fd5b600015158160030160009054906101000a900460ff16151514610f74576040517f08c379a0000000000000000000000000000000000000000000000000000000008152600401610f6b906122f5565b60405180910390fd5b60018160030160006101000a81548160ff02191690831515021790555060006103e86003548360020154610fa89190612344565b610fb291906123b5565b90506000818360020154610fc691906123e6565b905060008360000160009054906101000a900473ffffffffffffffffffffffffffffffffffffffff1673ffffffffffffffffffffffffffffffffffffffff16826040516110129061244b565b60006040518083038185875af1925050503d806000811461104f576040519150601f19603f3d011682016040523d82523d6000602084013e611054565b606091505b5050905080611098576040517f08c379a000000000000000000000000000000000000000000000000000000000815260040161108f906124ac565b60405180910390fd5b6000600260009054906101000a900473ffffffffffffffffffffffffffffffffffffffff1673ffffffffffffffffffffffffffffffffffffffff16846040516110e09061244b565b60006040518083038185875af1925050503d806000811461111d576040519150601f19603f3d011682016040523d82523d6000602084013e611122565b606091505b5050905080611166576040517f08c379a000000000000000000000000000000000000000000000000000000000815260040161115d90612518565b60405180910390fd5b8673ffffffffffffffffffffffffffffffffffffffff168873ffffffffffffffffffffffffffffffffffffffff167f52ef8fe9ff2349cfaa1ad56120e062959b04f0123cebc706e2c1c0681243e0e787600201546040516111c79190611ded565b60405180910390a35050505050505050565b60035481565b6111e76118ff565b6000600760008473ffffffffffffffffffffffffffffffffffffffff1673ffffffffffffffffffffffffffffffffffffffff168152602001908152602001600020600083815260200190815260200160002090508060010160009054906101000a900473ffffffffffffffffffffffffffffffffffffffff1673ffffffffffffffffffffffffffffffffffffffff163373ffffffffffffffffffffffffffffffffffffffff16146112cd576040517f08c379a00000000000000000000000000000000000000000000000000000000081526004016112c490612584565b60405180910390fd5b600015158160030160009054906101000a900460ff16151514611325576040517f08c379a000000000000000000000000000000000000000000000000000000000815260040161131c906125f0565b60405180910390fd5b60018160030160006101000a81548160ff0219169083151502179055508273ffffffffffffffffffffffffffffffffffffffff166342842e0e308360010160009054906101000a900473ffffffffffffffffffffffffffffffffffffffff16856040518463ffffffff1660e01b81526004016113a393929190612610565b600060405180830381600087803b1580156113bd57600080fd5b505af11580156113d1573d6000803e3d6000fd5b5050505060006103e860035483600201546113ec9190612344565b6113f691906123b5565b9050600081836002015461140a91906123e6565b905060008360000160009054906101000a900473ffffffffffffffffffffffffffffffffffffffff1673ffffffffffffffffffffffffffffffffffffffff16826040516114569061244b565b60006040518083038185875af1925050503d8060008114611493576040519150601f19603f3d011682016040523d82523d6000602084013e611498565b606091505b50509050806114dc576040517f08c379a00000000000000000000000000000000000000000000000000000000081526004016114d390612693565b60405180910390fd5b6000600260009054906101000a900473ffffffffffffffffffffffffffffffffffffffff1673ffffffffffffffffffffffffffffffffffffffff16846040516115249061244b565b60006040518083038185875af1925050503d8060008114611561576040519150601f19603f3d011682016040523d82523d6000602084013e611566565b606091505b50509050806115aa576040517f08c379a00000000000000000000000000000000000000000000000000000000081526004016115a190612518565b60405180910390fd5b858773ffffffffffffffffffffffffffffffffffffffff167f6745aae5ddd476154fbef144eb05b0910b840e93c36e2e1488805acaf639521d8760000160009054906101000a900473ffffffffffffffffffffffffffffffffffffffff1660405161161591906126b3565b60405180910390a3505050505061162a611945565b5050565b6116366117b2565b600073ffffffffffffffffffffffffffffffffffffffff168173ffffffffffffffffffffffffffffffffffffffff16036116a5576040517f08c379a000000000000000000000000000000000000000000000000000000000815260040161169c9061271a565b60405180910390fd5b80600260006101000a81548173ffffffffffffffffffffffffffffffffffffffff021916908373ffffffffffffffffffffffffffffffffffffffff1602179055508073ffffffffffffffffffffffffffffffffffffffff167f7a7b5a0a132f9e0581eb8527f66eae9ee89c2a3e79d4ac7e41a1f1f4d48a7fc260405160405180910390a250565b6117346117b2565b600073ffffffffffffffffffffffffffffffffffffffff168173ffffffffffffffffffffffffffffffffffffffff16036117a65760006040517f1e4fbdf700000000000000000000000000000000000000000000000000000000815260040161179d9190611998565b60405180910390fd5b6117af81611839565b50565b6117ba61194f565b73ffffffffffffffffffffffffffffffffffffffff166117d8610d88565b73ffffffffffffffffffffffffffffffffffffffff1614611837576117fb61194f565b6040517f118cdaa700000000000000000000000000000000000000000000000000000000815260040161182e9190611998565b60405180910390fd5b565b6000600160009054906101000a900473ffffffffffffffffffffffffffffffffffffffff16905081600160006101000a81548173ffffffffffffffffffffffffffffffffffffffff021916908373ffffffffffffffffffffffffffffffffffffffff1602179055508173ffffffffffffffffffffffffffffffffffffffff168173ffffffffffffffffffffffffffffffffffffffff167f8be0079c531659141344cd1fd0a4f28419497f9722a3daafe3b4186f6b6457e060405160405180910390a35050565b60026000540361193b576040517f3ee5aeb500000000000000000000000000000000000000000000000000000000815260040160405180910390fd5b6002600081905550565b6001600081905550565b600033905090565b600073ffffffffffffffffffffffffffffffffffffffff82169050919050565b600061198282611957565b9050919050565b61199281611977565b82525050565b60006020820190506119ad6000830184611989565b92915050565b600080fd5b600080fd5b6119c681611977565b81146119d157600080fd5b50565b6000813590506119e3816119bd565b92915050565b6000602082840312156119ff576119fe6119b3565b5b6000611a0d848285016119d4565b91505092915050565b6000819050919050565b611a2981611a16565b8114611a3457600080fd5b50565b600081359050611a4681611a20565b92915050565b600080fd5b600080fd5b600080fd5b60008083601f840112611a7157611a70611a4c565b5b8235905067ffffffffffffffff811115611a8e57611a8d611a51565b5b602083019150836001820283011115611aaa57611aa9611a56565b5b9250929050565b600080600080600060808688031215611acd57611acc6119b3565b5b6000611adb888289016119d4565b9550506020611aec888289016119d4565b9450506040611afd88828901611a37565b935050606086013567ffffffffffffffff811115611b1e57611b1d6119b8565b5b611b2a88828901611a5b565b92509250509295509295909350565b60007fffffffff0000000000000000000000000000000000000000000000000000000082169050919050565b611b6e81611b39565b82525050565b6000602082019050611b896000830184611b65565b92915050565b6000611b9a82611957565b9050919050565b611baa81611b8f565b8114611bb557600080fd5b50565b600081359050611bc781611ba1565b92915050565b600080600080600060a08688031215611be957611be86119b3565b5b6000611bf7888289016119d4565b9550506020611c0888828901611a37565b9450506040611c1988828901611bb8565b9350506060611c2a888289016119d4565b9250506080611c3b88828901611a37565b9150509295509295909350565b60008060008060808587031215611c6257611c616119b3565b5b6000611c70878288016119d4565b9450506020611c8187828801611a37565b9350506040611c92878288016119d4565b9250506060611ca387828801611a37565b91505092959194509250565b60008060408385031215611cc657611cc56119b3565b5b6000611cd4858286016119d4565b9250506020611ce585828601611a37565b9150509250929050565b611cf881611b8f565b82525050565b611d0781611a16565b82525050565b60008115159050919050565b611d2281611d0d565b82525050565b6000608082019050611d3d6000830187611cef565b611d4a6020830186611989565b611d576040830185611cfe565b611d646060830184611d19565b95945050505050565b600080600060608486031215611d8657611d856119b3565b5b6000611d94868287016119d4565b9350506020611da5868287016119d4565b9250506040611db686828701611a37565b9150509250925092565b600060208284031215611dd657611dd56119b3565b5b6000611de484828501611a37565b91505092915050565b6000602082019050611e026000830184611cfe565b92915050565b600082825260208201905092915050565b82818337600083830152505050565b6000601f19601f8301169050919050565b6000611e458385611e08565b9350611e52838584611e19565b611e5b83611e28565b840190509392505050565b6000608082019050611e7b6000830188611989565b611e886020830187611989565b611e956040830186611cfe565b8181036060830152611ea8818486611e39565b90509695505050505050565b600081519050611ec3816119bd565b92915050565b600060208284031215611edf57611ede6119b3565b5b6000611eed84828501611eb4565b91505092915050565b600082825260208201905092915050565b7f457363726f773a20646964206e6f742073656e64206e66740000000000000000600082015250565b6000611f3d601883611ef6565b9150611f4882611f07565b602082019050919050565b60006020820190508181036000830152611f6c81611f30565b9050919050565b7f457363726f773a2076616c7565206d69736d6174636800000000000000000000600082015250565b6000611fa9601683611ef6565b9150611fb482611f73565b602082019050919050565b60006020820190508181036000830152611fd881611f9c565b9050919050565b7f457363726f773a20646964206e6f74207573652061756374696f6e20636f6e7460008201527f7261637400000000000000000000000000000000000000000000000000000000602082015250565b600061203b602483611ef6565b915061204682611fdf565b604082019050919050565b6000602082019050818103600083015261206a8161202e565b9050919050565b6000819050919050565b600061209661209161208c84611957565b612071565b611957565b9050919050565b60006120a88261207b565b9050919050565b60006120ba8261209d565b9050919050565b6120ca816120af565b82525050565b60006040820190506120e560008301856120c1565b6120f26020830184611cfe565b9392505050565b7f457363726f773a20696e76616c69642063616c6c657200000000000000000000600082015250565b600061212f601683611ef6565b915061213a826120f9565b602082019050919050565b6000602082019050818103600083015261215e81612122565b9050919050565b7f457363726f773a20696e76616c6964206665652070657263656e746167650000600082015250565b600061219b601e83611ef6565b91506121a682612165565b602082019050919050565b600060208201905081810360008301526121ca8161218e565b9050919050565b7f457363726f773a206e6f74206275796572000000000000000000000000000000600082015250565b6000612207601183611ef6565b9150612212826121d1565b602082019050919050565b60006020820190508181036000830152612236816121fa565b9050919050565b7f457363726f773a206e6f2066756e647320746f2072656c656173650000000000600082015250565b6000612273601b83611ef6565b915061227e8261223d565b602082019050919050565b600060208201905081810360008301526122a281612266565b9050919050565b7f457363726f773a206f7264657220616c72656164792072656c65617365640000600082015250565b60006122df601e83611ef6565b91506122ea826122a9565b602082019050919050565b6000602082019050818103600083015261230e816122d2565b9050919050565b7f4e487b7100000000000000000000000000000000000000000000000000000000600052601160045260246000fd5b600061234f82611a16565b915061235a83611a16565b925082820261236881611a16565b9150828204841483151761237f5761237e612315565b5b5092915050565b7f4e487b7100000000000000000000000000000000000000000000000000000000600052601260045260246000fd5b60006123c082611a16565b91506123cb83611a16565b9250826123db576123da612386565b5b828204905092915050565b60006123f182611a16565b91506123fc83611a16565b925082820390508181111561241457612413612315565b5b92915050565b600081905092915050565b50565b600061243560008361241a565b915061244082612425565b600082019050919050565b600061245682612428565b9150819050919050565b7f457363726f773a206661696c656420746f2072656c656173652066756e647300600082015250565b6000612496601f83611ef6565b91506124a182612460565b602082019050919050565b600060208201905081810360008301526124c581612489565b9050919050565b7f457363726f773a206661696c656420746f2072656c6561736520666565000000600082015250565b6000612502601d83611ef6565b915061250d826124cc565b602082019050919050565b60006020820190508181036000830152612531816124f5565b9050919050565b7f457363726f773a206e6f742077696e6e65720000000000000000000000000000600082015250565b600061256e601283611ef6565b915061257982612538565b602082019050919050565b6000602082019050818103600083015261259d81612561565b9050919050565b7f457363726f773a2061756374696f6e2052656365697665640000000000000000600082015250565b60006125da601883611ef6565b91506125e5826125a4565b602082019050919050565b60006020820190508181036000830152612609816125cd565b9050919050565b60006060820190506126256000830186611989565b6126326020830185611989565b61263f6040830184611cfe565b949350505050565b7f457363726f773a206661696c656420746f2072656c656173652066756e640000600082015250565b600061267d601e83611ef6565b915061268882612647565b602082019050919050565b600060208201905081810360008301526126ac81612670565b9050919050565b60006020820190506126c860008301846120c1565b92915050565b7f457363726f773a20696e76616c69642061646472657373000000000000000000600082015250565b6000612704601783611ef6565b915061270f826126ce565b602082019050919050565b60006020820190508181036000830152612733816126f7565b905091905056fea2646970667358221220a6751eb5414e80f9fa9314f66275dd1ad9e94fdee1bbbe653ce1656740717be064736f6c634300081b0033",
  "linkReferences": {},
  "deployedLinkReferences": {}
}